:020000040800F2
:100000004807002011020008F51B0008191A000813
:10001000C91A0008ED0A0008091C000800000000C9
:10002000000000000000000000000000FD1B0008B0
:10003000F10A000800000000F91B0008011C00087C
:100040002B0200082B0200082B0200082B020008DC
:100050002B0200082B0200082B0200082B020008CC
:100060002B0200082B0200082B0200082B020008BC
:100070002B0200082B0200082B0200082B020008AC
:100080002B0200082B0200082B0200082B0200089C
:100090002B0200082B0200082B0200082B0200088C
:1000A0002B0200082B0200082B0200082B0200087C
:1000B0002B0200082B0200082B0200082B0200086C
:1000C0002B0200082B0200082B0200082B0200085C
:1000D0002B0200082B0200082B0200082B0200084C
:1000E0002B0200082B0200082B0200082B0200083C
:1000F0002B0200082B0200082B0200082B0200082C
:100100002B0200082B0200082B0200082B0200081B
:100110002B0200082B0200082B0200082B0200080B
:100120002B0200082B0200082B0200082B020008FB
:1001300000F002F800F05DF814A696E8000CB24456
:10014000B344DA4501D100F054F8BAE80F000FA625
:1001500096E83000A5EB040504EB0607AAEB0704BC
:10016000A7F101074FEA15154FEA3414A4F1010471
:10017000AC4201D300F03DF813F0010F18BFFB1A99
:1001800043F0010300F001F8DBE7184724250000E5
:1001900044250000103A24BF78C878C1FAD8520725
:1001A00024BF30C830C144BF04680C6070470000F1
:1001B000704700000023002400250026103A28BFC5
:1001C00078C1FBD8520728BF30C148BF0B607047C9
:1001D000662902F00A82002070471FB500F010FB6C
:1001E00004000020002102F073F9E0601FBD10B58B
:1001F00010BD00F005FC1146FFF7EFFF01F006FD12
:1002000000F023FC03B4FFF7F2FF03BC00F066FC30
:100210000948804709480047FEE7FEE7FEE7FEE79A
:10022000FEE7FEE7FEE7FEE7FEE7FEE704480549D6
:10023000054A064B70470000051C00083101000804
:100240004801002048070020480300204803002000
:100250000FB41CB50C0007AA009007D04142A14280
:1002600002D32044401E01E04FF0FF30074B7B4497
:1002700069460190069800F0A8FA0021002C01D0F0
:10028000009A11701CBC5DF814FB00007F05000093
:100290002DE9F0474FF0000A89460446C0F820A037
:1002A0002046E1688847002876D0252806D0D4E982
:1002B00001219047206A401C2062F1E7E168204656
:1002C00000258847C4F81CA006460027C4F818A0DB
:1002D0002A2E09D0304602F0F3F838B304EB870831
:1002E000303EC8F8186019E059F8041B204604EBAA
:1002F00087029161E1688847012F064618D1E069BD
:10030000002820DA25F020051DE0D8F8180000EBC1
:10031000800006EB40003038C8F818002046E1683D
:100320008847064602F0CCF80028EED1012F0AD00B
:100330002E2E08D12046E16888477F1C0646022FF2
:1003400045F02005C4DBA069002803DA404245F0EF
:100350000105A061E80701D025F01005B6B1A6F1AE
:100360004100192802D8203645F400654A46314636
:10037000204625604D46FFF72BFF58B1012806D0D7
:10038000ED1D25F0070000F1080989E704E005F1FB
:10039000040985E730468AE7206ABDE8F0877047A0
:1003A000704770472DE9FF4F0C461E464FF0FF3750
:1003B0008BB0D2E90001DDF860800A908A46C1F373
:1003C0000A5505B93D46002108464FF00000BAF134
:1003D000000F00F4400005DA00EB80004FF440010C
:1003E00001EA50004FEA9059B9F1010F00DDB9461A
:1003F0000A9850EA4A000ED044F61050A5F2FF3594
:1004000045432F14B8F1000F1ED07542291E1EDD82
:10041000C9F100021CE0B8F1010F4FF0000001D05B
:10042000302103E0F24305E02154401CB042FBDBE5
:1004300030460022002121540B99C1F80880C1E9FF
:1004400000200FB0BDE8F08FBD1B6D1CDEE74A46F3
:1004500000DA694206A800F05DFA06AB93E80700EF
:1004600003AB83E8070050460A9901F04CFC8DE885
:100470000700A0F500501F3800900398002D0ADDFA
:1004800042F21F014A460844002303A9039068462C
:1004900001F0B6FE09E0A0F500504A461F380023DF
:1004A00003A90390684601F0C0FE8DE80700000430
:1004B000000C03D04FF0FF30410800E01046B8F1C7
:1004C000000F03D00022009215461EE0751E05D4D1
:1004D00000F09AF9303262556D1EF9D5B34601220B
:1004E000084302D000227F1C04E02078302801D18C
:1004F00000227F1E002A099784D01DE0112D07DA03
:1005000000F082F9303262556D1C50EA0102F5D1DB
:10051000084302D00098C8B10EE00021681E05E033
:10052000235C625C63542254401E491C8142F7DB09
:10053000AB46A81B401E0990002004F80B000B9846
:10054000099AC0F80880C0E9002B7AE711264FF01D
:10055000000857E72DE9F04F88460446D21D22F0E7
:10056000070191B0D1E90001CDE90A0101F094FF42
:1005700002460B98C00F01D02D2007E020688107AC
:1005800001D52B2002E0202101EAC000032A0990B6
:1005900001D0072A05DB03464146204600F07AF9E0
:1005A0000BE12078800601D5E06900E00620B8F173
:1005B000650F814606D0B8F1660F18D0B8F1670F05
:1005C00070D131E00020B9F1110F009001DB11234F
:1005D00001E009F101030AAA01A90CA8FFF7E2FE54
:1005E000DDE90C70002609F10105834647E0012092
:1005F0004B4600904FF000470AAA01A90CA8FFF74C
:10060000D1FEDDE90DB00C995D46002610B909F167
:1006100001000D18B9EB050003D4C0F1FF3609F154
:100620000105A5EB09002BE0B9F1010F01DA4FF04C
:1006300001090020B9F1110F0090484601DD112396
:1006400000E003460AAA01A90CA8FFF7ABFEDDE90A
:100650000C704D4600268346207800070AD4AB452F
:1006600000DA5D4601A8012D04DD411911F8011CD5
:10067000302907D04F4502DA17F1040F04DA0120C0
:1006800082460FE06D1EEEE7002F02DCED1B3E44BC
:1006900003E0781CA84200DD7D1CB81B00F1010AB4
:1006A0004FF000472078000703D4AA4501DB4FF044
:1006B000FF3A0021B7F1004F0DF143088DF84310C8
:1006C00024D002202B23002F01DA7F422D230A2180
:1006D000021EA0F1010000DC5FB197FBF1FC97FB6B
:1006E000F1F201FB1C7C17460CF1300C08F801CD2F
:1006F000EEE7A8F1010003702188090501D5452125
:1007000000E06521A0F1010800F8011C09980FA97B
:10071000A1EB0807FF1D00B10120411901EBEA70B0
:10072000A1693844081A401EA0612078C00602D48E
:100730002046AFF30080099828B1D4E90121904701
:10074000206A401C20622078C00622D52046AFF3E4
:1007500000801EE0002E04DBB34502DD01A8805DB1
:1007600000E03020D4E901219047206A401C20623B
:10077000761CAAF101005FEA000A0AD100F040F8F5
:10078000C0680168405CD4E901219047206A401CA0
:100790002062281EA5F10105DCDC07E0D4E9012177
:1007A00018F8010B9047206A401C2062381EA7F100
:1007B0000107F3DC2046AFF30080032011B041E6CF
:1007C00001694A1C02610878704700B58FB0CDE915
:1007D00001310021059105497944CDE90310114605
:1007E0006846FFF755FD0FB000BD0000E5FFFFFFB5
:1007F000D1E900239A4202D2531C0B60107070475B
:10080000004870475000002030B5B0F10A0271F185
:1008100000034FEA900E4EEA817EB0EB0E0061EBD2
:1008200091014FEA101E4EEA017E10EB0E0041EBE3
:1008300011114FEA102E4EEA016E10EB0E0041EB43
:1008400011214FEA104E4EEA014E10EB0E0041EB23
:100850001141401841F100014FEAD00040EA4170D7
:100860004FEAD1014FEA810444EA907410EB80050D
:1008700044EB01046D1944EB0404521BA3414FF0F7
:10088000000348BF0A3200D530BD401C41F10001D1
:1008900030BD00002DE9F0411F46044603260168E3
:1008A000072A01F4006004DB08B116A505E016A5CF
:1008B00003E008B115A500E015A521F010002060A7
:1008C000A069C01EA0610FB1401EA0612046AFF319
:1008D00000804FB1D4E9012138469047206A401C7E
:1008E0002062C01C206206E0206AFAE7D4E90121F8
:1008F00015F8010B9047761EF8D22046AFF3008022
:10090000BDE8F0814E414E006E616E00494E4600DA
:10091000696E66002DE9F047814616468AB0354873
:1009200078440DC88DE80D0032487844801C03AC33
:100930000DC884E80D0041F69B300844372190FB38
:10094000F1F290FBF1F5A5F1800501FB12041B3CCF
:1009500002D56442012000E00020DFF898A0804624
:100960000027FA44AAF1BE0A0EE0E0070AD0324698
:10097000684607EB470101230AEB810101F055FCB2
:100980008DE8070064107F1C002CEED1194F7F44C6
:10099000AE3F19E0E80715D007EB04100DF1180A77
:1009A00090E80E008AE80E00C068F04201D1981964
:1009B00008903246012306A903A801F036FC03ABD8
:1009C00083E807006D10641C002DE3D14FF0010394
:1009D00032466946B8F1000F03A802D001F010FCBE
:1009E00001E001F022FCC9E90001C9F808200AB0C1
:1009F000BDE8F087481D0000004870473000002027
:100A00007546FFF7F9FFAE4605006946534620F0EC
:100A10000700854618B020B5FFF708FCBDE8204068
:100A20004FF000064FF000074FF000084FF0000BAA
:100A3000AC46ACE8C009ACE8C009ACE8C009ACE819
:100A4000C00921F007018D46704710B50446AFF389
:100A500000802046BDE81040FFF7D4BB4FF0013CBA
:100A600050F8042B51F8043B9A4221D1A2EB0C031D
:100A7000934313EACC1317D150F8042B51F8043BDD
:100A80009A4215D1A2EB0C03934313EACC130BD17A
:100A900050F8042B51F8043B9A4209D1A2EB0C0305
:100AA000934313EACC13DBD04FF00000704700BF34
:100AB000D01A01BAB1FA81F101F0180122FA01F05D
:100AC000CB40DBB2C0B2C01AC1F120012CFA01F355
:100AD000D11A914311EAC311E6D170470149182098
:100AE000ABBEFEE72600020070470000FEE70000F4
:100AF00070470000EFF3108072B600BFFEE7000001
:100B0000B0B5044600F004F9054640F22000C2F2F8
:100B100000000078611C18BF044400BF00F0F8F822
:100B2000401BA042FAD3B0BD2DE9F04F82B00E6851
:100B3000002E00F0E980A0F1804241F6004540F22D
:100B40000043A2F58432C4F201050624C4F2010375
:100B50004FEAB227A84208BF05244FF0000E4FF01D
:100B600001080F254FF0000A4FF0000B052F38BF8A
:100B70004FEAB224009408E00E680AF1010A36FA3E
:100B80000AF20EF1040E00F0BF8008FA0AFC16EA21
:100B90000C09F1D04E684FF6FF72C1F21002964276
:100BA00012DC122E56D8DFE806F0350B4D495555AC
:100BB000555555555555555555555545510000BF39
:100BC000D1F80CB046E000BF4FF6FF72C1F221022F
:100BD00096420FDC0022C1F2110296421AD0002286
:100BE000C1F21202964215D00022C1F221029642B1
:100BF00010D02FE00022C1F2220296420AD0002239
:100C0000C1F23102964205D00022C1F23202964270
:100C100020D100BF8A684AB1012A14BFC0F814C0AD
:100C2000C0F810C04FF0080B14E000BF4FF0040BE9
:100C300010E000BFCA6802F1040B0BE04FF0000B9C
:100C400008E000BFCA6802F1080B03E0CA6802F1BD
:100C50000C0B00BF02467446B9F5807F24BF0432F6
:100C6000203C166805FA04F726EA07070BFA04F693
:100C700037431760CA79D2067FF57EAF41F2180775
:100C8000C4F202073A684FF6084542F001023A60A2
:100C90003A68CFF6FF7502F001020192019A2AF03C
:100CA00003021A440F2457590EF00C06B440A74310
:100CB000009C04FA06F6374357514E6840F20C4444
:100CC000F2029A6854BF22EA090242EA0902C4F217
:100CD00001049A602268B70254BF22EA090242EA7C
:100CE000090222605A68B70354BF22EA090242EAA5
:100CF00009025A600F251A68F70354BF22EA090255
:100D000042EA09021A6037E702B0BDE8F08F00003E
:100D100040F24410C2F200000068704740F2200028
:100D200040F24411C2F20000C2F2000100780A68E9
:100D3000104408607047000080B542F20000C4F221
:100D40000200016841F010010160032000F07AF810
:100D50000F2000F005F800F027F8002080BD00000B
:100D600070B540F22006C2F2000640F22801327847
:100D7000C2F200014FF47A730968B3FBF2F2044641
:100D8000B1FBF2F1084600F073FB0F2C4FF00105A8
:100D900008D838B94FF0FF3021460022002500F076
:100DA00025F87460284670BD82B041F21800C4F284
:100DB00002000168022241F001010160016801F0B6
:100DC000010101910199416841F080514160406801
:100DD00000F08050009000980420C4F201000168E7
:100DE00062F31A61016002B07047000010B54EF660
:100DF0000C5CCEF2000CDCF80030C3F3022E8EF057
:100E00000704042C28BF0424BEF103034FF0FF3E67
:100E10000EFA04F438BF0023A14399400EFA03F3FD
:100E20009A43114300F00F0200F160430901043AB4
:100E300003F564436244002848BF02F10C031970B3
:100E400010BD00004EF60C51CEF200010A684FF6BC
:100E5000FF031A4060F30A2242F0806040F0FD7008
:100E600008607047002804BF012070472DE9F04357
:100E700081B042F20008C4F202080446D8F800002B
:100E80000D4600F0070088420CD2D8F8000020F090
:100E900007002843C8F80000D8F8000000F0070059
:100EA000A8426CD1206841F204098107C4F202090A
:100EB00017D5410705D5D9F8001041F4E061C9F80C
:100EC0000010010705D5D9F8001041F46051C9F8A8
:100ED0000010D9F80010A26821F0F0011143C9F800
:100EE0000010C00742D1D8F8000000F00700A84267
:100EF0000CD9D8F8000020F007002843C8F80000FB
:100F0000D8F8000000F00700A84238D12068410757
:100F100007D5D9F80010E26821F4E0611143C9F85F
:100F20000010000708D5D9F80000216920F46050AE
:100F300040EAC100C9F80000D9F8002002F00C0016
:100F4000082841F20020C0F27A004DD142F29E639F
:100F5000C2F38341C0F60003595CD20338D440F693
:100F60000010C0F23D0048433EE000BF606859F801
:100F7000041C022808D0012826D1890306D40120A8
:100F800001B0BDE8F08300BF8901F8D5D9F80010A1
:100F900021F003010843C9F80000FFF7B9FE064637
:100FA00041F28837D9F80000616800F00C00B0EB1E
:100FB000810F98D0FFF7ACFE801BB842F2D9032016
:100FC00001B0BDE8F08300BF8907D8D5DEE700BFD8
:100FD000D9F8002042F29C63C2F34042C0F60003FD
:100FE0009A5C4843B0FBF2F0D9F8001042F28462F8
:100FF000C1F30311C0F60002515C40F2280220FA4E
:1010000001F140F22400C2F200000068C2F20002C6
:101010001160FFF7A5FE002001B0BDE8F0830000DD
:1010200040F2280041F20401C2F20000C4F20201C1
:101030000068096842F29462C1F30221C0F600021E
:10104000515CC8407047000040F2280041F20401A2
:10105000C2F20000C4F202010068096842F2946220
:10106000C1F3C221C0F60002515CC84070470000C5
:10107000002804BF012070472DE9F04182B00446EA
:10108000007841F20006C007C4F202060CD0706876
:1010900000F00C00042840F081803068800303D504
:1010A0006068002800F04681207880071BD57068B2
:1010B00010F00C0F09D0706800F00C00082840F008
:1010C00087807068C00300F183803068800703D593
:1010D0002069012840F02E813068616920F0F80015
:1010E00040EAC10030602078000713D42078400720
:1010F0002CD4E569002D00F01881706800F00C0018
:10110000082840F0A780012D40F00481012002B0A2
:10111000BDE8F081A069002800F084800020C4F2BE
:1011200042200121C0F88014FFF7F2FD054600BF00
:10113000706A800700F1B280FFF7EAFD401B0228C9
:10114000F6D9032002B0BDE8F08100BFF0695FEA84
:10115000C00808D4F06940F08050F061F06900F0F8
:1011600080500090009847F20007C4F200073868EA
:10117000C00549D4386840F480703860FFF7C8FD76
:10118000054600BF3868C0053ED4FFF7C1FD401BCF
:101190006428F7D9032002B0BDE8F081706800F040
:1011A0000C00082803D17068C0033FF576AF616872
:1011B0003068002900F00C81B1F5A02F00F000810B
:1011C000B1F5803F40F01A8140F480301CE100BF4F
:1011D0002069002840F20000C4F2422000F088801C
:1011E00001210160FFF794FD054600BF30688007CC
:1011F0003FF572AFFFF78CFD401B0228F6D90320A4
:1012000002B0BDE8F08100BFE168306A002900F05B
:101210009D80052900F09280012940F0AF8040F0C8
:101220000100B1E00020C4F242200021C0F8801487
:10123000FFF76EFD054600BF706A80077FF556AF69
:10124000FFF766FD401B0228F6D9032002B0BDE877
:10125000F08100BF0027C4F2422700203866FFF764
:1012600057FD022D05460DD13068800140F1DE802A
:10127000FFF74EFD401B02284FF00300F4D902B0E7
:10128000BDE8F081306880014FD5FFF741FD401B7C
:1012900002284FF00300F5D9F1E700BF40F2280023
:1012A000C2F20000006844F6D351C1F26201A0FB13
:1012B0000101480A019000BF00BF0198411E0028AB
:1012C00001913FF413AF00BF0198411E0028019126
:1012D0003FF40CAF00BF0198411E002801913FF47C
:1012E00005AF00BF0198411E00280191E4D1FDE641
:1012F00000210160FFF70CFD054600BF3068800744
:101300007FF5F1AEFFF704FD401B02284FF003000C
:10131000F4D9B4E77068216A00F480328A4209D1B6
:10132000616A00F47010884204D1002002B0BDE868
:10133000F08100BF012002B0BDE8F08140F0040060
:101340003062306A40F001001EE000BF20F0010072
:101350003062306A20F004003062FFF7D9FC0546A5
:1013600041F28837306A800720D5FFF7D1FC401B57
:10137000B8424FF00300F5D981E700BF20F001002B
:101380003062306A20F004003062FFF7C1FC05468D
:1013900041F28837306A800708D4FFF7B9FC401B58
:1013A000B842F7D9032002B0BDE8F081B8F1000FD0
:1013B0003FF59FAEF06920F08050F06199E600BFE4
:1013C00040F480203060306840F480301CE000BF82
:1013D00020F480303060306820F480203060FFF7E7
:1013E00097FC0546306880037FF55EAEFFF790FC02
:1013F000401B64284FF00300F4D940E720F480300C
:101400003060306820F480203060FFF781FC0546B2
:10141000306880033FF548AEFFF77AFC401B642834
:10142000F6D9032002B0BDE8F08100BF206AB0F514
:10143000803F05D17168A26821F4003111437160C9
:101440007168626A21F474111143084370600120CD
:101450003866FFF75DFC0446306880013FF565AFF4
:10146000FFF756FC001B02284FF00300F4D906E7F3
:10147000411E0020B0EB116F1CBF012070474EF2DF
:101480001002CEF2000251604EF62351CEF200015E
:10149000F0230B700721906011607047002804BF93
:1014A0000120704710B5044690F8410028B900208B
:1014B00084F84000204600F063F8242084F84100BE
:1014C0002068D4E90212C36823F40053C36003699F
:1014D00023F440531A430261D4E904231143C26840
:1014E000194341F20C639A431143C1604169A269F7
:1014F00021F44071114343F60002C4F2010290420C
:10150000416103D0FFF78CFD02E000BFFFF79CFDB7
:10151000D4E90023192148439900B0FBF1F048F2C7
:101520001F5CC5F2EB1CA0FB0C314FF69C73490904
:10153000C0F6FF7301FB0300322303EB0010A0FB96
:101540000C03F02000EA531000EB0110C3F3431129
:10155000084490601069202120F490401061506987
:1015600020F02A005061D06840F40050D060002084
:10157000606484F8411084F84210606310BD00007C
:1015800070B586B0006844F60001C4F200018842DC
:101590004FF00001CDE90411CDE9021126D043F648
:1015A0000001C4F20101884252D141F21800C4F294
:1015B0000200016840F6000441F4804101600168C6
:1015C0004FF4806601F48041019101990168C4F2F1
:1015D000010441F004010160006800F00400019082
:1015E00001984FF40070029021E000BF41F2180012
:1015F000C4F2020041684FF4006641F4802141606A
:10160000416801F4802101910199016841F00801CC
:101610000160006800F00800019001984FF48060BC
:10162000029040F60000C4F2010000F58064022040
:101630000390032002AD059020462946FFF774FA77
:101640000020CDE90300204629460296FFF76CFAF8
:1016500006B070BD2DE9F04381B0044690F8420019
:10166000202809D1884600294FF0010018BF002A20
:1016700006D101B0BDE8F083022001B0BDE8F083DF
:10168000002022211D46606484F842102063164623
:10169000FFF73EFBA685E685A1680746B1F5805FAA
:1016A00002D12069002851D046464FF00008E08D55
:1016B00000284FD005F101090CE000BF406800266A
:1016C0006FF35F2028F8020BE08D0138E085E08D94
:1016D00000283FD020680168890617D4B9F1000FAF
:1016E00022D0002D00F0CA80FFF712FBC01BA842D9
:1016F00000F2BC802068C168490744BF01685FEA06
:1017000001712FD401688906EED500BF002ED5D017
:10171000A168B1F5805F15D009B9216991B1406820
:1017200000F07F000FE000BF01688906EED4016879
:1017300089065CBF01685FEA8161E7D401688906B8
:10174000F2D5E3E7406806F8010BBDE70026E08D1F
:101750000028AFD10020202184F8421001B0BDE85C
:10176000F08300BF00210091016800914068009063
:10177000009800BF206850E8030F216820F49070A3
:1017800041E80302BAB3206850E8030F216820F44F
:10179000907041E8030272B3206850E8030F21689B
:1017A00020F4907041E803022AB3206850E8030F48
:1017B000216820F4907041E80302002ADAD11AE08F
:1017C000206850E8050F216820F0010041E805027B
:1017D000DAB1206850E8050F216820F0010041E8E7
:1017E000050292B1206850E8050F216820F0010041
:1017F00041E805024AB1206850E8050F216820F051
:10180000010041E80502002ADAD1206B012824D129
:10181000206850E8030F216820F0100041E803021F
:10182000DAB1206850E8030F216820F0100041E889
:10183000030292B1206850E8030F216820F01000E5
:1018400041E803024AB1206850E8030F216820F004
:10185000100041E80302002ADAD1202084F8420077
:10186000002008212063616484F8400003202021C7
:1018700084F8421001B0BDE8F08300BFFFF748FADA
:10188000F4E700002DE9F04381B0044690F84100F0
:10189000202809D100294FF0010018BF002A07D1E4
:1018A00001B0BDE8F08300BF022001B0BDE8F083C5
:1018B0000020606421201D460E4684F84100174632
:1018C000FFF726FAA784E784A1688146B1F5805F17
:1018D00002D1206900285DD037460020E28C2168C3
:1018E000002A5DD06A1C24D0002D4AD0804600BF5B
:1018F0000868000608D4FFF70BFAA0EB0900A8421D
:101900007AD82168C868F3E717B117F8010B04E02B
:1019100038F8020B00276FF35F204860E08C013835
:10192000E084E08C0028E3D13AE000BF0A681206A8
:1019300009D40A68120606D40A6812065CBF0A684F
:101940005FEA0262F2D51FB117F8012B05E000BF74
:1019500030F8022B00276FF35F224A60E28C013AD5
:10196000E284E28C002AE4D11AE000BF30F8022BB6
:1019700000276FF35F224A60E28C013AE284E28C36
:1019800072B10A68120635D5002FEFD017F8012B77
:10199000F1E700BF00273046E28C2168002AA1D180
:1019A000086840061ED42DB3681C14D10868400690
:1019B0002AD40868400627D40868400624D408685A
:1019C00040064FF00000F1D50DE000BF2068C1686F
:1019D0000068400618D4FFF79BF9A0EB0900A84265
:1019E000F4D909E00020202184F8411001B0BDE8BD
:1019F000F08300BFFFF78CF90320202184F8411009
:101A000001B0BDE8F08300BF0020202184F8411020
:101A100001B0BDE8F0830000FEE7000082B041F2B3
:101A20001800C4F20200016841F008010160016879
:101A300001F0080101910199016841F00401016080
:101A4000006800F004000090009802B070470000A9
:101A500080B540F2B40043F60001C2F20000C4F2C7
:101A6000010100234FF00C0C4FF4E13280E80E002E
:101A7000C0E90333C0E905C3C361FFF70FFD0028C8
:101A800008BF80BDBDE88040FFF734B880B540F2A4
:101A9000FC0044F60001C2F20000C4F20001002381
:101AA0004FF00C0C4FF4964280E80E00C0E903336F
:101AB000C0E905C3C361FFF7F1FC002808BF80BD82
:101AC000BDE88040FFF716B8FEE700002DE9F041C1
:101AD00096B040F29004C2F2000440F2FC0740F2DB
:101AE000000500202646C2F20007C2F20005C4F835
:101AF0001D00C4F81900C4F81500C4F81100C4F89A
:101B00000D00C4F80900C4F8050046F8010F384676
:101B1000294608226423FFF7B5FE384631460722DE
:101B20006423FFF797FD21792070002948D160795F
:101B3000012845D1002005F1080140F2FC0544F8D8
:101B4000010FC2F20005E061A06160612061E06008
:101B5000A0606060284608226423FFF793FE2846B1
:101B600021461122C823FFF775FDD4F80300D4F8ED
:101B70000710D4F80B2000BA0CBA15BA00F0C4FC58
:101B8000804620460F4600F0BFFC044628460E461D
:101B900000F0BAFCCDE9024606AC0B4604900AA25E
:101BA00020464021CDE900870593FEF751FB82B224
:101BB00040F2B400C2F200002146C823FFF762FEE3
:101BC00016B0BDE8F08100BF434F323A20252E31D8
:101BD000662070706D2C2054656D703A20252E3172
:101BE0006620432C2052483A20252E316625250DAB
:101BF0000A000000FEE70000704700007047000088
:101C0000FFF78CB870470000FEE7000090B0FFF7C8
:101C100093F800240120CDE90B44CDE90944069056
:101C20000A904FF4E0104FF4803102250F9006A87F
:101C3000CDE90714CDE90D51FFF71AFA20B1EFF302
:101C4000108072B6FEE700BF0F20CDE901054FF40A
:101C50008060CDE9040401A802210394FFF702F992
:101C600020B1EFF3108072B6FEE700BFFFF7D6FE9B
:101C7000FFF7EEFEFFF70AFF40F2900440F2000784
:101C800040F2FC05C2F200040026C2F20007C2F2D4
:101C9000000544F8016F07F110012846082264236B
:101CA000E661A66166612661E660A6606660FFF790
:101CB000E9FD284621460822C823FFF7CBFC4FF454
:101CC0007A70FEF71DFF07F11801284608226423E9
:101CD000E661A66166612661E660A66066602660D0
:101CE000FFF7D0FD284621460822C823FFF7B2FCA3
:101CF0004FF47A70FEF704FFFFF7E8FE4FF47A70B6
:101D0000FEF7FEFEF8E75FEA400C08BF91F0000F17
:101D10004FEA8C234FEAC12243EA51514FEA1C504B
:101D200018BF00F5F0404FEA300018BF41F0004105
:101D30005FEA6C5C00F02980BCF1FF3F08BF40F017
:101D400080407047130C06BF12044FF0100C4FF088
:101D5000000C130E04BF12020CF1080C130F04BF89
:101D600012010CF1040C930F04BF92000CF1020C51
:101D7000D30F04BF52000CF1010C11464FF00002CA
:101D8000A0F11F00A0EB0C00704711F0004F08BF3E
:101D9000704731F000413FF4D5AF0B0C06BF09048A
:101DA0004FF0100C4FF0000C0B0E04BF09020CF1A9
:101DB000080C0B0F04BF09010CF1040C8B0F04BFBE
:101DC00089000CF1020CCB0F04BF49000CF1010C8F
:101DD000CCF1200322FA03F341EA030102FA0CF2E8
:101DE000A0EB0C0000F101007047000023F07F47DA
:101DF00020F07F4C80EA030000F00040ACEB0703CA
:101E000003F57C5303F1FF032DE9804909B44FEA40
:101E1000144324EA03484FEA154B25EA0B4E0FF210
:101E2000042606EB13273E7803FB0667C7F5000779
:101E300007FB06F64FEAD64606F102064FEA54378C
:101E400007FB066CCCF1005C4FEA1C472CEA074C00
:101E50000CFB06F507FB06F404EB15464FEA961655
:101E600049085FEA320234BF00204FF000404FEAD9
:101E7000D13706FB07FC4FEA1C4C0CFB0BF7D21BBF
:101E800003FB0CF761EB07010CFB0EF7B0EB07400F
:101E900072EB17420CFB08F734BFA2EB0742B2EB20
:101EA000074261EB17414FEA0C444FEA910706FBEA
:101EB00007FC4FEA1C4C0CFB0BF7B0EBC74072EB76
:101EC000573203FB0CF734BFA2EBC742B2EBC74259
:101ED00061EB57310CFB0EF7B0EBC70072EB57729A
:101EE0000CFB08F734BFA2EBC702B2EBC70261EBF1
:101EF00057714FEA816141EA92114FEA826242EAE8
:101F000090124FEA806004EBCC04039F4FEAD13774
:101F100006FB07FC4FEA1C4C0CFB0BF7D21B03FB28
:101F20000CF761EB07010CFB0EF7B0EB074072EB0F
:101F300017420CFB08F734BFA2EB0742B2EB074293
:101F400061EB17414FEA8C5504EB9C244FEA910753
:101F500006FB07FC4FEA1C4C0CFB0BF7B0EBC74031
:101F600072EB573203FB0CF734BFA2EBC742B2EB64
:101F7000C74261EB57310CFB0EF7B0EBC70072EBB9
:101F800057720CFB08F734BFA2EBC702B2EBC702D3
:101F900061EB57714FEA816141EA92114FEA826227
:101FA00042EA90124FEA806015EB4C2544F10004A0
:101FB0004FEAD13706FB07FC4FEA1C4C0CFB0BF732
:101FC000D21B03FB0CF761EB07010CFB0EF7B0EB28
:101FD000074072EB17420CFB08F734BFA2EB074235
:101FE000B2EB074261EB17414FEA813141EA92417E
:101FF0004FEA823242EA90424FEA80304FEA0C7652
:1020000015EB1C1544F1000448EA03434EEA0B4863
:102010004FF0000EB2EB080C71EB030724BF6246D1
:1020200039464EEB0E0E4FF0000B0018524149415D
:102030004BEB0B0BB2EB080C71EB03077BF1000BC6
:1020400024BF624639464EEB0E0E4FF0000B0018CF
:10205000524149414BEB0B0BB2EB080C71EB030700
:102060007BF1000B24BF624639464EEB0E0E51EA5F
:10207000020718BF46F0010616EB0E7655F1000276
:1020800054F1000103D5BDE88901BDE80088BDE831
:102090008901BDE80048B619524141EB0101A3F1A5
:1020A0000103704780807F7E7D7C7B7A79787776AC
:1020B00076757473727171706F6E6E6D6C6C6B6A25
:1020C0006A696868676666656464636362616160C3
:1020D000605F5F5E5E5D5D5C5C5B5B5A5A59595840
:1020E00058575756565555555454535352525251AA
:1020F000515050504F4F4F4E4E4D4D4D4C4C4C4B00
:102100004B4B4A4A4A494949484848474747474646
:102110004646454545444444444343434342424282
:10212000424141419C46002B30D477002BD04FEAEE
:1021300037071CB503B44FF010004FF01001BAF18F
:10214000000F06D0BCF1000FDCBF40F0080040F0EB
:1021500008014FF000000FBCBDE810400BF1010B6F
:10216000BBF1010F08BF5FEA170722BF12F101029E
:1021700011F101014FF0004143F1000300F0004074
:1021800043EA00007047F9D35708D0E746EA06460D
:102190004FEA164613F1400F1FDD13F1200FDFBF8A
:1021A00016430A46002120335B42BED0C3F120070C
:1021B00046EA06464FEA164602FA07F746EA0706D7
:1021C00022FA03F2C3F1200701FA07F742EA0702F5
:1021D00021FA03F14FF00003A7E746EA020646EAB8
:1021E00006464FEA164646EA0106BCBF46EA0646E0
:1021F000360C4FF000034FF000024FF0000194E75F
:102200002DE9804C70B49A46934691E8380007C88F
:1022100031EA400C48BF34EA430C03D5FFF7E6FD32
:10222000FFF780FFF0BCBDE8008C2DE9804C70B456
:102230009A46934691E8380007C810F0804F08BFCF
:1022400013F0804F03D100F005F8FFF76BFFF0BCEF
:10225000BDE8008C20F07F4723F07F4C80EA03002C
:1022600000F0004007EB0C03A3F57C53A3F1FE0341
:1022700092F0000F00F0B38095F0000F00F077802F
:102280002DE901494FEA114021EA00484FEA14467E
:1022900024EA064700FB06FC08FB06F607FB08F8E5
:1022A00018EB06484CEB164C00FB07F718EB0748F9
:1022B0004CEB17404FEA124B22EA0B4E4FEA154601
:1022C00025EA06470BFB06FC0EFB06F607FB0EFE97
:1022D0001EEB064E4CEB164C0BFB07F71EEB074EA6
:1022E0004CEB174B18EB0B0840F1000018EB0E0BF2
:1022F00058EB000840F100008F1A4FF000014FF03A
:1023000000063CBFC943661B14BFB5EB040C00219B
:102310003CBFC943F61B4FEA174427EA04454FEA7E
:102320001C472CEA074C04FB076205FB07F70CFB74
:1023300005F616EB074642EB174204FB0CFC16EBC6
:102340000C4642EB1C421BEB060658EB02024141D5
:102350004EEA8E0E46EA9E0601D5BDE80189B61901
:10236000524141EB0101A3F10103BDE801894FEAAC
:10237000144524EA05464FEA114721EA074C05FBBC
:1023800007F406FB07F70CFB06F111EB074144EBE2
:10239000174405FB0CFC11EB0C4144EB1C444FEAC9
:1023A000124722EA074C05FB07F206FB07F70CFB76
:1023B00006F616EB074642EB174205FB0CFC16EB44
:1023C0000C4642EB1C456A1854F1000148BF7047A7
:1023D000B619524141EB0101A3F10103704795F099
:1023E000000F37D04FEA114221EA02464FEA144764
:1023F00024EA074C02FB07F106FB07F70CFB06F487
:1024000014EB074441EB174102FB0CFC14EB0C44AA
:1024100041EB1C414FEA154725EA074C02FB07F543
:1024200006FB07F70CFB06F616EB074645EB1745D0
:1024300002FB0CFC16EB0C4645EB1C42121951F149
:10244000000148BF7047B619524141EB0101A3F1A9
:10245000010370474FEA144524EA05464FEA114745
:1024600021EA074C05FB07F106FB07F70CFB06F218
:1024700012EB074241EB174105FB0CFC12EB0C423F
:1024800051EB1C414FF0000648BF7047921841EBDA
:102490000101A3F101037047490050EAC12018BFB0
:1024A00004204A0D18BF40F0010040F2FF72B2EB69
:1024B000515F08BF40F00200012808BF05207047A7
:1024C00030380A2801D201207047002070470000F0
:1024D00010B500290AD00878002807D005487844AC
:1024E000FEF7BCFA002801D0002010BD0248784455
:1024F00010BD0000F2010000EA0100000808A0F58C
:1025000000114FEA3101704743004FEAD30C4FEA04
:102510003C0C43401FBF40070CF1605113F0FE4FCD
:1025200070471CF0006F03D10CF000410020704791
:102530000CF0004343EA507040EACC0010B500F0C4
:102540000EF800BF000000924FEA0001FFF7D6BF6F
:102550004FF00041A1F500214FF0000070470EF14F
:10256000020E2EF0030E5EF8044B244204D44FEA10
:102570004102B2F17F4F11D84FEA4003B3F17F4FD0
:102580000CD80ED14FEAD07C0CEB4C0C0CF1020CA9
:10259000B2F17F4F08BF4CEBD17C04E04FF0080C48
:1025A00001E04FEAD17C0CEB4C0324FA03F404F075
:1025B0000704B4F1040C06D20EEB840CBDE8104005
:1025C0004CF0010C6047DFE80CF0070802024FF006
:1025D0000040A0F5800010BD0846420018BFD2F1AF
:1025E000807288BF00F0004010BDFDF7B3BF00004F
:1025F00002400000000000A00000000005400000B4
:10260000000000C8000000000C4000000000409CDA
:1026100000000000194000000020BCBE00000000C7
:1026200034400000BFC91B8E00000004B54000000C
:10263000504BCFD06607E2CF010000006C41000094
:102640003E8251AADFEEA73401000000D94200000B
:10265000DCB5A0E23A301F97FFFFFFFFB445000052
:10266000FD25A0C8E9A3C14FFFFFFFFFFF3F00000A
:102670000000008000000000FF3F0000000000801C
:102680000000000000000000000000000102030440
:10269000060708090000000001020304010202030A
:1026A0000405060708090A0B0C0D0E0F1010000098
:1026B000F02600080000002030000000940100080F
:1026C000202700083000002018070000B40100088F
:1026D0001C00000043000000F8FFFFFF0C0000009A
:1026E0000E0000000F0000002E000000000000009F
:1026F0006103002700013DA16103002800064C6032
:102700006106003400010064610600360000606468
:10271000010000001000000000127A00000000001C
:0400000508000131BD
:00000001FF
