:020000040800F2
:10000000581700200D02000831290008A52100081A
:100010002D29000895080008452900080000000067
:100020000000000000000000000000003929000866
:100030009908000800000000352900083D29000843
:1000400027020008270200082702000827020008EC
:1000500027020008270200082702000827020008DC
:1000600027020008270200082702000827020008CC
:1000700027020008270200082702000827020008BC
:1000800027020008270200082702000827020008AC
:10009000270200082702000827020008270200089C
:1000A000270200082702000827020008270200088C
:1000B000270200082702000827020008270200087C
:1000C000270200082702000827020008270200086C
:1000D000270200082702000827020008270200085C
:1000E000270200082702000827020008270200084C
:1000F000270200082702000827020008270200083C
:10010000270200082702000827020008270200082B
:10011000270200082702000827020008270200081B
:10012000270200082702000827020008270200080B
:1001300000F002F800F05BF814A696E8000CB24458
:10014000B344DA4501D100F052F8BAE80F000FA627
:1001500096E83000A5EB040504EB0607AAEB0704BC
:10016000A7F101074FEA15154FEA3414A4F1010471
:10017000AC4201D300F03BF813F0010F18BFFB1A9B
:1001800043F0010300F001F8DBE7184788A3010002
:10019000A8A30100103A24BF78C878C1FAD8520742
:1001A00024BF30C830C144BF04680C6070470000F1
:1001B000704700000023002400250026103A28BFC5
:1001C00078C1FBD8520728BF30C148BF0B607047C9
:1001D000642900F0A180752900F09E80732900F049
:1001E000DE82002070471FB51FBD10B510BD00F0A6
:1001F00017FB1146FFF7F7FF03F0C2F900F035FBDC
:1002000003B4FFF7F2FF03BC00F03CFB0948804752
:1002100009480047FEE7FEE7FEE7FEE7FEE7FEE7E8
:10022000FEE7FEE7FEE7FEE704480549054A064B00
:1002300070470000412900083101000858110020D2
:100240005817002058130020581300200FB41CB575
:10025000084B06AA7B4469460090059800F075FAA1
:1002600004460020694600F083FA20461CBC5DF875
:1002700014FB00001905000070B50446856900688C
:10028000C10601D5302600E02026C00707D070BD8A
:10029000D4E9012130469047206A401C20626D1E3F
:1002A000F6D570BD70B5044685690078C00707D1E2
:1002B00070BDD4E9012120209047206A401C2062B3
:1002C0006D1EF6D570BD70B50C460546012A05D0E9
:1002D0002878800600D5EA69002302E0012305E0C2
:1002E0005B1C934202D2E05C0028F9D1A869E618B1
:1002F000C01AA861286A184428622846FFF7BCFF84
:1003000004E0D5E9012114F8010B9047B442F8D379
:100310002846FFF7C7FF70BD2DE9F04106460024CF
:1003200010687529314616A510D0AFF3008000285B
:1003300002DA404213A507E031688A0701D512A509
:1003400002E0490704D511A5012401E0AFF30080C4
:1003500000210A2206F1240709E0B0FBF2FCB0FB01
:10036000F2F302FB1C00303078541846491C002878
:10037000F3D123462A463046BDE8F04100F087B964
:10038000000000002D0000002B00000020000000F5
:100390002DE9F05F894604464FF0000ADFF824B1EA
:1003A000FB44C0F820A02046E168884700287DD0A3
:1003B000252806D0D4E901219047206A401C2062FC
:1003C000F1E700255F462046E16888472028064679
:1003D00007DB312E05D2B81910F8200C08B10543FF
:1003E000F1E7A80701D525F00405C4F81CA00027F3
:1003F000C4F818A02A2E09D0304604F0D1FC38B336
:1004000004EB8708303EC8F8186019E059F8041B5F
:10041000204604EB87029161E1688847012F064678
:1004200018D1E069002820DA25F020051DE0D8F871
:10043000180000EB800006EB40003038C8F81800C8
:100440002046E1688847064604F0AAFC0028EED161
:10045000012F0AD02E2E08D12046E16888477F1C44
:100460000646022F45F02005C4DBA069002803DA08
:10047000404245F00105A061E80701D025F01005D4
:10048000A6B1A6F14100192802D8203645F400652E
:100490004A463146204625604D46FFF799FE60B139
:1004A000012807D0ED1D25F0070000E007E000F16E
:1004B000080978E705F1040975E730467AE7206A0C
:1004C000BDE8F09F0A4A0000032A40F2308010F095
:1004D000030C00F0158011F8013BBCF1020F6244DF
:1004E00098BF11F801CB00F8013B38BF11F8013B70
:1004F000A2F1040298BF00F801CB38BF00F8013B1D
:1005000011F0030300F06780083AC0F0088051F84A
:10051000043B083A51F804CBA0E80810F5E7121D97
:100520005CBF51F8043B40F8043BAFF30080D207B6
:1005300024BF11F8013B11F801CB48BF11F8012B82
:1005400024BF00F8013B00F801CB48BF00F8012BA5
:100550007047431A28BF9A427FF6B6AF1044114441
:10056000032A40F2268010F0030F1EBF11F8013D50
:10057000521E00F8013D10F0030F7FF4F6AF11F0AA
:10058000030300F02381083AC0F00B8051F8043DCA
:10059000083A51F804CD40F8043D40F804CDFFF787
:1005A000F3BF121D5CBF51F8043D40F8043DAFF3AA
:1005B0000080D20724BF11F8013D11F801CD48BFDA
:1005C00011F8012C24BF00F8013D00F801CD48BF0F
:1005D00000F8012C704710B5203AC0F00B80B1E84C
:1005E0001850A0E81850B1E81850A0E81850203A68
:1005F000BFF4F5AF5FEA027C24BFB1E81850A0E871
:10060000185044BF18C918C0BDE810405FEA827C8A
:1006100024BF51F8043B40F8043B08BF7047D207A1
:1006200028BF31F8023B48BF11F8012B28BF20F842
:10063000023B48BF00F8012B70474FF0000200B5A5
:10064000134694469646203922BFA0E80C50A0E8F5
:100650000C50B1F12001BFF4F7AF090728BFA0E8A3
:100660000C5048BF0CC05DF804EB890028BF40F86F
:10067000042B08BF704748BF20F8022B11F0804FB1
:1006800018BF00F8012B70477047704770472DE97D
:10069000F0470D4699469246044600F12408016849
:1006A000880604D5E06921F01001216000E00120F6
:1006B000A84201DD471B00E00027A1697A1902EB7F
:1006C0000900081AA0612078C00602D42046FFF76E
:1006D000D3FD002608E0D4E901211AF8060090476E
:1006E000206A401C761C20624E45F4DB2078C00650
:1006F0000AD52046FFF7C0FD06E0D4E901213020ED
:100700009047206A401C2062381EA7F10107F4DCE4
:1007100007E0D4E9012118F805009047206A401C41
:100720002062281EA5F10105F3DC2046FFF7BAFD83
:100730002078000602D50220BDE8F0870120FBE703
:1007400001694A1C02610878704700B58FB0CDE995
:1007500001310021059105497944CDE90310114685
:100760006846FFF715FE0FB000BD0000E5FFFFFF74
:100770000A6802F8010B0A60704710B5436913B1AB
:10078000AFF3008001E0FFF79EFD012010BD12785D
:1007900000F124010A7000224A700122EDE711687D
:1007A0004FF0FF32E9E7431A28BF9A427FF613AFB2
:1007B0001044114410F0030F1EBF11F8013D521EEA
:1007C00000F8013D10F0030F7FF4F6AF103AC0F0CF
:1007D0000A8010B531E9185020E91850103ABFF4DA
:1007E000F9AFBDE81040530724BF31E9081020E9F4
:1007F000081044BF51F8043D40F8043D12F0030FC7
:1008000008BF7047D20728BF31F8023D48BF11F832
:10081000012C28BF20F8023D48BF00F8012C70478A
:10082000754600F02BF8AE4605006946534620F0A9
:100830000700854618B020B5FFF7F6FCBDE820405C
:100840004FF000064FF000074FF000084FF0000B8C
:10085000AC46ACE8C009ACE8C009ACE8C009ACE8FB
:10086000C00921F007018D46704710B50446AFF36B
:1008700000802046BDE81040FFF7C2BC004870472A
:100880001000002001491820ABBEFEE72600020040
:1008900070470000FEE7000070470000EFF3108093
:1008A00072B600BFFEE70000B0B5044600F00AF9DA
:1008B000054640F20000C2F200000078611C18BF3B
:1008C000044400BF00F0FEF8401BA042FAD3B0BDC4
:1008D0002DE9F04F82B00E68002E00F0E980A0F103
:1008E000804241F6004540F20043A2F58432C4F252
:1008F00001050624C4F201034FEAB227A84208BF4B
:1009000005244FF0000E4FF001080F254FF0000AAC
:100910004FF0000B052F38BF4FEAB224009408E0D7
:100920000E680AF1010A36FA0AF20EF1040E00F01E
:10093000BF8008FA0AFC16EA0C09F1D04E684FF69F
:10094000FF72C1F21002964212DC122E56D8DFE876
:1009500006F0350B4D495555555555555555555579
:1009600055555545510000BFD1F80CB046E000BFC9
:100970004FF6FF72C1F2210296420FDC0022C1F253
:10098000110296421AD00022C1F21202964215D0EC
:100990000022C1F22102964210D02FE00022C1F2C3
:1009A000220296420AD00022C1F23102964205D0BC
:1009B0000022C1F23202964220D100BF8A684AB1B9
:1009C000012A14BFC0F814C0C0F810C04FF0080BC3
:1009D00014E000BF4FF0040B10E000BFCA6802F142
:1009E000040B0BE04FF0000B08E000BFCA6802F1F7
:1009F000080B03E0CA6802F10C0B00BF0246744604
:100A0000B9F5807F24BF0432203C166805FA04F74C
:100A100026EA07070BFA04F637431760CA79D206AD
:100A20007FF57EAF41F21807C4F202073A684FF62D
:100A3000084542F001023A603A68CFF6FF7502F0CD
:100A400001020192019A2AF003021A440F24575915
:100A50000EF00C06B440A743009C04FA06F6374398
:100A600057514E6840F20C44F2029A6854BF22EA91
:100A7000090242EA0902C4F201049A602268B7023C
:100A800054BF22EA090242EA090222605A68B70307
:100A900054BF22EA090242EA09025A600F251A6885
:100AA000F70354BF22EA090242EA09021A6037E753
:100AB00002B0BDE8F08F0000002A08BF0904016100
:100AC0007047000041F25410C2F200000068704705
:100AD000002804BF01207047F0B581B0044690F8AB
:100AE0003D0028B9002084F83C00204600F0E8FDD5
:100AF000242084F83D002068016821F00101016094
:100B0000016841F400410160016821F40041016085
:100B100000F08EFF636848F2A16CC0F2010C40F651
:100B20000011C0F23D0163453CBF48F28041C0F274
:100B30001E01884202D2012001B0F0BD4DF6836152
:100B4000C4F21B31A0FB01122168970CD1F804E01C
:100B50004FF496762EF03F0545EA92454D60774377
:100B600048F638160D6AC0F24106A7FB067625F056
:100B70003F07634538BF960C721C3A430A62CA6944
:100B800048F2A0664CF6FF77C0F20106B34222EAB3
:100B900007020BD801385B00B0FBF3F001306FF3B4
:100BA0001F30042898BF04201BE000BFA76801384D
:100BB00057B119277B43B0FBF3F001306FF31F30BF
:100BC00070B100F5804007E003EB4303B0FBF3F0A6
:100BD00001306FF31F3018B100F5004001E000BF95
:100BE00001201043C8610868D4E9072320F0C00041
:100BF000104318430860886848F2FF3204F10C077C
:100C000090438CCF18431043A6698860C86820F0D1
:100C1000FF0038433043C860086840F001000860B6
:100C200000202021206484F83D10206384F83E00D9
:100C300001B0F0BD2DE9F04784B0044600201F4606
:100C4000164689460290FFF73DFF94F83D10202993
:100C500024D10546206800BF816989071AD5FFF7AE
:100C600031FF411B20681A29F6D381698907F3D522
:100C700000202021206384F83D1084F83E00216C80
:100C800041F02001216484F83C00022004B0BDE85A
:100C9000F08700BF94F83C10012903D1022004B072
:100CA000BDE8F087012184F83C100168C90703D131
:100CB000016841F0010101600168DDF8308021F434
:100CC00000610160222184F83D10102184F83E105B
:100CD0000021216466626785618D0227C0F20107E9
:100CE0002185A7F10211E162E16A026811F5803FF6
:100CF00042F48062026018BF01293DD1016841F4CD
:100D00008071016020464FF001110022434600959A
:100D100001F096FB50B120680068C00544BF4FF455
:100D200000702064012004B0BDE8F0872069B0F5B0
:100D3000804F27D149F00100C0B2216842460861C6
:100D4000204639462B4601F061FC0028EAD1208D6F
:100D5000022861D0012849D0002840F0738000208B
:100D600003902068416903918169039103990168A7
:100D700041F40071016071E00829BFD0216B112995
:100D8000BCD0BFE7062000EAD916206806F1F001C2
:100D90000161B91D204642462B4601F037FC002870
:100DA000C0D120685FFA89F1016120463946424688
:100DB0002B4601F02BFC0028B4D1002003902068C2
:100DC00000224169434603918169039103990168B7
:100DD00041F48071016020464FF00111009501F04F
:100DE0002FFB002897D146F0F100A6E720680168A4
:100DF00021F480610160EFF3108072B6002003904F
:100E0000206841690391816903910399016841F464
:100E10000071016062B621E02068016841F4006160
:100E20000160EFF3108072B60020039020684169E2
:100E30000391816903910399016821F48061016044
:100E400062B60BE02068016841F480610160002116
:100E5000039141690391806903900398208D0028D4
:100E600000F0CC8040F208094BF2895A0237C2F2F6
:100E70000009C1F2F84A23260EE000BF106908708D
:100E8000606A218D01306062481E2085618D0139C4
:100E90006185010400F0B28080B203280CD80228DA
:100EA0002CD001284AD1204641462A4601F01AFC9E
:100EB000002800F09F8035E7204641462A4601F091
:100EC00011FC00287FF42EAF2068616A0069087069
:100ED000606A2268411C208D616201382085638D23
:100EE000013B638553695B07D3D580B20328C5D125
:100EF000106820F480601060C0E700BF20463946CB
:100F000000224346009501F09BFA00287FF40AAFC7
:100F1000EFF3108072B62068616A026842F40072D2
:100F2000026000690870606A218D01306062481EAD
:100F30002085608D0138608562B65BE020463946C9
:100F400000224346009501F07BFA00287FF4EAAEC8
:100F50002068016821F480610160EFF3108072B6AF
:100F60002068616A00690870606A218D013001396A
:100F700060622185618D01396185D9F80010C90849
:100F8000A1FB0A12110A71430291029901390291DF
:100F9000029900293ED021684A6952071AD4029961
:100FA000013902910299A9B321684A69520711D403
:100FB000029901390291029961B321684A69520785
:100FC00008D4029901390291029919B321684A693A
:100FD0005207DAD50A6842F400720A6009690170A2
:100FE000606A218D01306062481E2085608D013865
:100FF000608562B62068616A006940E7202084F855
:101000003D00002084F83E0084F83C0004B0BDE8B8
:10101000F08700BF00202021206384F83D1084F871
:101020003E00216C41F02001216462B684F83C004E
:10103000012004B0BDE8F0872DE9F04383B01E46DF
:10104000174689460446FFF73DFD94F83D102029D8
:1010500024D10546206800BF816989071AD5FFF7AA
:1010600031FD411B20681A29F6D381698907F3D520
:1010700000202021206384F83D1084F83E00216C7C
:1010800041F02001216484F83C00022003B0BDE857
:10109000F08300BF94F83C10012903D1022003B073
:1010A000BDE8F083012184F83C100168C90703D131
:1010B000016841F001010160016840F2020821F479
:1010C00000610160212184F83D10102184F83E1058
:1010D0000021216467626685618DC0F20108218567
:1010E000A8F10211E162E16A0A9E11F5803F18BF82
:1010F00001291DD1016841F48071016020464FF043
:10110000011100223346009501F09AF950B1206890
:101110000068C00544BF4FF400702064012003B094
:10112000BDE8F0832069B0F5804F07D1FE2015E0BF
:101130000829DFD0216B1229DCD0DFE7062000EA86
:10114000D9102168F030086108F1060120463246C6
:101150002B4601F05BFA0028E0D1FF20216800EA6D
:10116000090008612046414632462B4601F04EFAFE
:101170000028D3D100200290206841690291806943
:101180000290029806E000BF204631462A4601F050
:10119000F9F818BB208D68B3204631462A4601F085
:1011A000E9FAD8B9606A2168024612F8013B0B617E
:1011B0006262628D013A6285228D531E23854F69DA
:1011C0007F07E1D51B04DFD0437802300B616062FA
:1011D000608D01386085901E2085D5E7206C04283D
:1011E0009CD12068016841F400710160012003B0C6
:1011F000BDE8F0832068016841F40071016020209F
:1012000084F83D00002084F83E0084F83C0003B0E0
:10121000BDE8F0832DE9F04F85B0044600209946E3
:1012200016460F460490FFF74DFC94F83D10202918
:1012300027D10546206800BF816989071CD5FFF7C3
:1012400041FC411B20681A29F6D381698907F3D52F
:1012500000202021206384F83D1084F83E00206C9B
:1012600004F13C0A40F020002064022000218AF8AA
:10127000001005B0BDE8F08FA2461AF83C1F012906
:1012800004D1022005B0BDE8F08F00BF01228AF82A
:1012900000200368DDE90F180E9ADB0703D103680D
:1012A00043F001030360036823F40063036022201A
:1012B00084F83D00402084F83E00002020646262F3
:1012C0006185608D394620850020CFF6FF70E06291
:1012D000204632464B46CDE9008500F065FF18B147
:1012E000012005B0BDE8F08F208D022826D001280E
:1012F0000ED0002838D10020039020684169039166
:10130000816903910399016841F40071016037E03C
:101310002068016821F480610160EFF3108072B6EB
:10132000002003902068416903918169039103992A
:10133000016841F40071016062B621E02068016833
:1013400041F400610160EFF3108072B60020039059
:10135000206841690391816903910399016821F42F
:101360008061016062B60BE02068016841F4806131
:101370000160002103914169039180690390039802
:10138000208D002800F0CE80042740F208094BF29F
:10139000895BC0F20107C2F20009C1F2F84B2326B3
:1013A0000EE000BF10690870606A218D0130606234
:1013B000481E2085618D01396185010400F0B280ED
:1013C00080B203280CD802282CD001284AD120460C
:1013D00041462A4601F086F9002800F09F807FE709
:1013E000204641462A4601F07DF900287FF478AF77
:1013F0002068616A00690870606A2268411C208D5B
:10140000616201382085638D013B638553695B0709
:10141000D3D580B20328C5D1106820F48060106055
:10142000C0E700BF2046394600224346009501F040
:1014300007F800287FF454AFEFF3108072B62068ED
:10144000616A026842F40072026000690870606AB2
:10145000218D01306062481E2085608D01386085D5
:1014600062B65BE02046394600224346009500F014
:10147000E7FF00287FF434AF2068016821F4806121
:101480000160EFF3108072B62068616A006908702D
:10149000606A218D0130013960622185618D0139D9
:1014A0006185D9F80010C908A1FB0B12110A71431C
:1014B0000491049901390491049900293ED02168CE
:1014C0004A6952071AD40499013904910499A9B3BD
:1014D00021684A69520711D4049901390491049989
:1014E00061B321684A69520708D40499013904910B
:1014F000049919B321684A695207DAD50A6842F497
:1015000000720A6009690170606A218D01306062B1
:10151000481E2085608D0138608562B62068616A4A
:10152000006940E7202084F83D00002084F83E0058
:1015300000218AF8001005B0BDE8F08F00202021BE
:10154000206384F83D1084F83E00206C40F02000B9
:10155000206462B6012000218AF8001005B0BDE8C1
:10156000F08F00002DE9F04383B0994616460F46F0
:101570000446FFF7A7FA94F83D10202924D1054628
:10158000206800BF816989071AD5FFF79BFA411BC4
:1015900020681A29F6D381698907F3D50020202114
:1015A000206384F83D1084F83E00216C41F0200156
:1015B000216484F83C00022003B0BDE8F08300BF42
:1015C00094F83C10012903D1022003B0BDE8F08358
:1015D000012284F83C200368DDE90B180A9ADB0736
:1015E00003D1036843F001030360036823F400633D
:1015F0000360212084F83D00402084F83E00002054
:10160000206462626185608D394620850020CFF6B6
:10161000FF70E062204632464B46CDE9008500F07F
:101620004DFE18B1012003B0BDE8F083208D98B9BC
:10163000204641462A4600F0A5FE88B3206C0428C7
:10164000F0D12068016841F400710160012003B00D
:10165000BDE8F0830004EBD0204641462A4601F065
:1016600089F80028EAD1616A2268084610F8013B2F
:101670001361238D6062581E2085678D013F678549
:1016800057697F07E6D50704E4D048781061881CC5
:101690006062981E2085618D01396185DAE700BF9F
:1016A0002068016841F400710160202084F83D0049
:1016B000002084F83E0084F83C0003B0BDE8F083CD
:1016C00010B586B0016845F20040C4F200008142C6
:1016D0004FF00001CDE90411CDE9021102D006B0AE
:1016E00010BD00BF41F21804C4F20204216800F5E5
:1016F000384041F008012160216801F008010191A2
:101700000199C0210291122103910321059102A99F
:10171000FFF7DEF8606840F400106060606800F475
:1017200000100190019806B010BD000040F20000CA
:1017300041F25411C2F20000C2F2000100780A68BE
:10174000104408607047000080B542F20000C4F207
:101750000200016841F010010160032000F07AF8F6
:101760000F2000F005F800F027F8002080BD0000F1
:1017700070B540F20006C2F2000640F2080132786D
:10178000C2F200014FF47A730968B3FBF2F2044627
:10179000B1FBF2F1084600F073FB0F2C4FF001058E
:1017A00008D838B94FF0FF3021460022002500F05C
:1017B00025F87460284670BD82B041F21800C4F26A
:1017C00002000168022241F001010160016801F09C
:1017D000010101910199416841F0805141604068E7
:1017E00000F08050009000980420C4F201000168CD
:1017F00062F31A61016002B07047000010B54EF646
:101800000C5CCEF2000CDCF80030C3F3022E8EF03C
:101810000704042C28BF0424BEF103034FF0FF3E4D
:101820000EFA04F438BF0023A14399400EFA03F3E3
:101830009A43114300F00F0200F160430901043A9A
:1018400003F564436244002848BF02F10C03197099
:1018500010BD00004EF60C51CEF200010A684FF6A2
:10186000FF031A4060F30A2242F0806040F0FD70EE
:1018700008607047002804BF012070472DE9F0433D
:1018800081B042F20008C4F202080446D8F8000011
:101890000D4600F0070088420CD2D8F8000020F076
:1018A00007002843C8F80000D8F8000000F007003F
:1018B000A8426CD1206841F204098107C4F20209F0
:1018C00017D5410705D5D9F8001041F4E061C9F8F2
:1018D0000010010705D5D9F8001041F46051C9F88E
:1018E0000010D9F80010A26821F0F0011143C9F8E6
:1018F0000010C00742D1D8F8000000F00700A8424D
:101900000CD9D8F8000020F007002843C8F80000E0
:10191000D8F8000000F00700A84238D1206841073D
:1019200007D5D9F80010E26821F4E0611143C9F845
:101930000010000708D5D9F80000216920F4605094
:1019400040EAC100C9F80000D9F8002002F00C00FC
:10195000082841F20020C0F27A004DD14AF2D84363
:10196000C2F38341C0F60103595CD20338D440F678
:101970000010C0F23D0048433EE000BF606859F8E7
:10198000041C022808D0012826D1890306D401208E
:1019900001B0BDE8F08300BF8901F8D5D9F8001087
:1019A00021F003010843C9F80000FFF78BF8064651
:1019B00041F28837D9F80000616800F00C00B0EB04
:1019C000810F98D0FFF77EF8801BB842F2D9032030
:1019D00001B0BDE8F08300BF8907D8D5DEE700BFBE
:1019E000D9F8002044F6D753C2F34042C0F60003B2
:1019F0009A5C4843B0FBF2F0D9F8001044F6BF52AD
:101A0000C1F30311C0F60002515C40F2080220FA53
:101A100001F140F20400C2F200000068C2F20002CC
:101A20001160FFF7A5FE002001B0BDE8F0830000C3
:101A300040F2080041F20401C2F20000C4F20201C7
:101A40000068096844F6CF52C1F30221C0F60002D3
:101A5000515CC8407047000040F2080041F20401A8
:101A6000C2F20000C4F202010068096844F6CF52D5
:101A7000C1F3C221C0F60002515CC84070470000AB
:101A8000002804BF012070472DE9F04182B00446D0
:101A9000007841F20006C007C4F202060CD070685C
:101AA00000F00C00042840F081803068800303D5EA
:101AB0006068002800F04681207880071BD5706898
:101AC00010F00C0F09D0706800F00C00082840F0EE
:101AD00087807068C00300F183803068800703D579
:101AE0002069012840F02E813068616920F0F800FB
:101AF00040EAC10030602078000713D42078400706
:101B00002CD4E569002D00F01881706800F00C00FD
:101B1000082840F0A780012D40F00481012002B088
:101B2000BDE8F081A069002800F084800020C4F2A4
:101B300042200121C0F88014FEF7C4FF054600BF13
:101B4000706A800700F1B280FEF7BCFF401B0228DC
:101B5000F6D9032002B0BDE8F08100BFF0695FEA6A
:101B6000C00808D4F06940F08050F061F06900F0DE
:101B700080500090009847F20007C4F200073868D0
:101B8000C00549D4386840F480703860FEF79AFF89
:101B9000054600BF3868C0053ED4FEF793FF401BE2
:101BA0006428F7D9032002B0BDE8F081706800F026
:101BB0000C00082803D17068C0033FF576AF616858
:101BC0003068002900F00C81B1F5A02F00F00081F1
:101BD000B1F5803F40F01A8140F480301CE100BF35
:101BE0002069002840F20000C4F2422000F0888002
:101BF00001210160FEF766FF054600BF30688007DF
:101C00003FF572AFFEF75EFF401B0228F6D90320B6
:101C100002B0BDE8F08100BFE168306A002900F041
:101C20009D80052900F09280012940F0AF8040F0AE
:101C30000100B1E00020C4F242200021C0F880146D
:101C4000FEF740FF054600BF706A80077FF556AF7C
:101C5000FEF738FF401B0228F6D9032002B0BDE88A
:101C6000F08100BF0027C4F2422700203866FEF74B
:101C700029FF022D05460DD13068800140F1DE803C
:101C8000FEF720FF401B02284FF00300F4D902B0FA
:101C9000BDE8F081306880014FD5FEF713FF401B8F
:101CA00002284FF00300F5D9F1E700BF40F2080029
:101CB000C2F20000006844F6D351C1F26201A0FBF9
:101CC0000101480A019000BF00BF0198411E002891
:101CD00001913FF413AF00BF0198411E002801910C
:101CE0003FF40CAF00BF0198411E002801913FF462
:101CF00005AF00BF0198411E00280191E4D1FDE627
:101D000000210160FEF7DEFE054600BF3068800757
:101D10007FF5F1AEFEF7D6FE401B02284FF0030020
:101D2000F4D9B4E77068216A00F480328A4209D19C
:101D3000616A00F47010884204D1002002B0BDE84E
:101D4000F08100BF012002B0BDE8F08140F0040046
:101D50003062306A40F001001EE000BF20F0010058
:101D60003062306A20F004003062FEF7ABFE0546B8
:101D700041F28837306A800720D5FEF7A3FE401B6A
:101D8000B8424FF00300F5D981E700BF20F0010011
:101D90003062306A20F004003062FEF793FE0546A0
:101DA00041F28837306A800708D4FEF78BFE401B6B
:101DB000B842F7D9032002B0BDE8F081B8F1000FB6
:101DC0003FF59FAEF06920F08050F06199E600BFCA
:101DD00040F480203060306840F480301CE000BF68
:101DE00020F480303060306820F480203060FEF7CE
:101DF00069FE0546306880037FF55EAEFEF762FE41
:101E0000401B64284FF00300F4D940E720F48030F1
:101E10003060306820F480203060FEF753FE0546C5
:101E2000306880033FF548AEFEF74CFE401B642847
:101E3000F6D9032002B0BDE8F08100BF206AB0F5FA
:101E4000803F05D17168A26821F4003111437160AF
:101E50007168626A21F474111143084370600120B3
:101E60003866FEF72FFE0446306880013FF565AF07
:101E7000FEF728FE001B02284FF00300F4D906E706
:101E8000411E0020B0EB116F1CBF012070474EF2C5
:101E90001002CEF2000251604EF62351CEF2000144
:101EA000F0230B700721906011607047002804BF79
:101EB0000120704710B5044690F8410028B9002071
:101EC00084F84000204600F063F8242084F84100A4
:101ED0002068D4E90212C36823F40053C360036985
:101EE00023F440531A430261D4E904231143C26826
:101EF000194341F20C639A431143C1604169A269DD
:101F000021F44071114343F60002C4F201029042F1
:101F1000416103D0FFF78CFD02E000BFFFF79CFD9D
:101F2000D4E90023192148439900B0FBF1F048F2AD
:101F30001F5CC5F2EB1CA0FB0C314FF69C734909EA
:101F4000C0F6FF7301FB0300322303EB0010A0FB7C
:101F50000C03F02000EA531000EB0110C3F343110F
:101F6000084490601069202120F49040106150696D
:101F700020F02A005061D06840F40050D06000206A
:101F8000606484F8411084F84210606310BD000062
:101F900070B586B040F60004C4F20104006804F590
:101FA0004051002688420596CDE90366029601D08D
:101FB00006B070BD41F21800C4F20200016802AD23
:101FC00041F480410160016801F48041019101996F
:101FD000016841F0040101600068294600F0040036
:101FE000019001984FF400700290022003900320AA
:101FF00005902046FEF76CFC4FF48060CDE90206A8
:10200000204629460496FEF763FC06B070BD00002A
:102010002DE9F04381B0044690F84100202809D111
:1020200000294FF0010018BF002A07D101B0BDE818
:10203000F08300BF022001B0BDE8F083002060649F
:1020400021201D460E4684F841001746FEF73AFD52
:10205000A784E784A1688146B1F5805F02D1206939
:1020600000285DD037460020E28C2168002A5DD030
:102070006A1C24D0002D4AD0804600BF08680006A4
:1020800008D4FEF71FFDA0EB0900A8427AD821680A
:10209000C868F3E717B117F8010B04E038F8020B32
:1020A00000276FF35F204860E08C0138E084E08C0B
:1020B0000028E3D13AE000BF0A68120609D40A6892
:1020C000120606D40A6812065CBF0A685FEA02625A
:1020D000F2D51FB117F8012B05E000BF30F8022B35
:1020E00000276FF35F224A60E28C013AE284E28CBF
:1020F000002AE4D11AE000BF30F8022B00276FF36A
:102100005F224A60E28C013AE284E28C72B10A6892
:10211000120635D5002FEFD017F8012BF1E700BFDD
:1021200000273046E28C2168002AA1D108684006C9
:102130001ED42DB3681C14D1086840062AD4086840
:10214000400627D40868400624D4086840064FF0AB
:102150000000F1D50DE000BF2068C16800684006AE
:1021600018D4FEF7AFFCA0EB0900A842F4D909E0AF
:102170000020202184F8411001B0BDE8F08300BFA9
:10218000FEF7A0FC0320202184F8411001B0BDE837
:10219000F08300BF0020202184F8411001B0BDE889
:1021A000F0830000FEE700002DE9F04782B004460E
:1021B00000689A460B9D0A9E0368914643F480622C
:1021C000026002680F4642F48071016020464FF0C1
:1021D000011100223346009500F032F950B1206819
:1021E0000068C00544BF4FF400702064032002B0B3
:1021F000BDE8F08740F202082068C0F2010807F04D
:10220000FE0707612046414632462B4600F0FEF9A4
:1022100020B1012002B0BDE8F08700BF002001908E
:1022200020682A46416901918069314601900198F0
:10223000204600F09FFAB0B92068BAF1010F09D02A
:102240004FEA19210161204631462A4600F092FAF0
:1022500048B920685FFA89F10161204631462A4673
:1022600000F088FA60B1206C0428D2D1206801689F
:1022700041F400710160012002B0BDE8F08700BFA9
:10228000206800220168334641F4807101602046D5
:102290004FF00111009500F0D3F800289FD147F0CE
:1022A000010C27682046414632462B46C7F810C02D
:1022B00002B0BDE8F04700F0A9B900002DE9F043F5
:1022C00083B0044600680F4601680A9D0B9E41F4E6
:1022D000807199469046016020464FF0011100221E
:1022E0002B46009600F0ACF850B120680068C0059D
:1022F00044BF4FF400702064032003B0BDE8F083B6
:10230000206807F0FE0101610221C0F201012046B0
:102310002A46334600F07AF920B1012003B0BDE827
:10232000F08300BF0020029020683246416902918C
:102330008069294602900298204600F01BFA58B1A5
:10234000206C0428E9D12068016841F40071016023
:10235000012003B0BDE8F0832068B9F1010F0AD075
:102360004FEA1821016120462946324600F002FA60
:102370000028E5D120685FFA88F10161002003B0F0
:10238000BDE8F08370B50368044653F8140F4007A6
:1023900011D40E46481C29D086BB00BF18684005E2
:1023A00027D4FEF78FFB236853F8140F400737D567
:1023B00018684007F2D5002070BD00BF18684007BC
:1023C000F9D41868400514D418684007F3D4186885
:1023D00040050ED418684007EDD41868400508D4AD
:1023E000186840074FF0000048BF70BD18684005EE
:1023F000E4D56FF480601860042012E0154603E015
:1024000053F8140F4007D6D418684005F1D4FEF7EE
:1024100059FB401B2368B042F2D958694007EFD4FA
:10242000202000212022216384F83D2084F83E10E2
:10243000226C10432064012084F83C1070BD000021
:102440002DE9F041054600681E46144601F47F025E
:1024500001338FB242D0DDF81880B2F5803F40F0F2
:10246000878040693840C01BB0FA80F04009A04224
:1024700040F0C8804EB924E040693840C01BB0FA33
:1024800080F04009A04240F0BD80FEF71BFBA0EBAE
:1024900008012868B142EFD941693940C91BB1FA36
:1024A00081F14909A142E7D19BE000BF4069384072
:1024B000C01BB0FA80F04009A0424FF0000040F08D
:1024C000A280FEF7FFFA286841693940C91BB1FABA
:1024D00081F14909A142E9D183E000BFB2F5803F13
:1024E00024D100BF41693940C91BB1FA81F14909C2
:1024F000A14240F0878041693940C91BB1FA81F19E
:102500004909A14240F07E8041693940C91BB1FAB6
:1025100081F14909A14275D141693940C91BB1FA1C
:1025200081F14909A142DDD06CE000BF81693940E9
:10253000C91BB1FA81F14909A14263D181693940CE
:10254000C91BB1FA81F14909A1425BD181693940C6
:10255000C91BB1FA81F14909A14253D181693940BE
:10256000C91BB1FA81F14909A142DFD04AE000BF9D
:1025700080693840C01BB0FA80F04009A04241D1C8
:1025800046B923E080693840C01BB0FA80F04009AA
:10259000A04237D1FEF796FAA0EB08012868B142B5
:1025A000F0D981693940C91BB1FA81F14909A142C9
:1025B000E8D116E080693840C01BB0FA80F04009CD
:1025C000A0424FF0000018BFBDE8F081FEF77AFA94
:1025D000286881693940C91BB1FA81F14909A142D2
:1025E000E8D100202021286385F83D1085F83E00C1
:1025F000296C41F02001296485F83C000120BDE8E8
:10260000F08100BF0020BDE8F0810000F0B581B08E
:10261000044600681D4643698FB203EA0701B942C8
:1026200002D1002001B0F0BD4169164601323CD014
:10263000490512D47EB300BFFEF744FA411B20685F
:10264000B14203D941693940B9422BD1416939407E
:10265000B942E6D041694905EED5016841F40071FF
:1026600001606FF480614161042000212022216318
:1026700084F83D2084F83E10226C1043206484F8D6
:102680003C10012001B0F0BD41693940B942C8D0C9
:1026900041694905E1D4FEF715FA206841693940DE
:1026A000B942F1D02020E0E741694905D5D441691C
:1026B0003940B942B5D041694905CED44169394064
:1026C000B942AED041694905C7D441693940B942E0
:1026D000A7D041694905C0D441693940B942E3D125
:1026E0009FE7000070B504460068154650F8143F97
:1026F0005A063DD40E4629B926E000BF50F8141FF3
:10270000490635D40168C90621D4FEF7DBF9411B1F
:102710002068B142F2D941694906EFD40020202156
:10272000206384F83D1084F83E00206C40F02000C7
:1027300018E000BFFEF7C6F9206850F8141F4906DC
:10274000ECD50168490613D40168C906F2D56FF0CB
:102750001001016000202021206384F83D1084F8DE
:102760003E00206C2064002084F83C00012070BDF5
:10277000002070BD70B50368044653F8140F0006BE
:1027800011D40E46481C29D086BB00BF18684005EE
:1027900027D4FEF797F9236853F8140F000637D5AE
:1027A00018680006F2D5002070BD00BF186800064A
:1027B000F9D41868400514D418680006F3D41868D2
:1027C00040050ED418680006EDD41868400508D4FA
:1027D000186800064FF0000048BF70BD186840053B
:1027E000E4D56FF480601860042012E0154603E021
:1027F00053F8140F0006D6D418684005F1D4FEF73C
:1028000061F9401B2368B042F2D958690006EFD441
:10281000202000212022216384F83D2084F83E10EE
:10282000226C10432064012084F83C1070BD00002D
:1028300070B586B00020CDE90400CDE9020041F278
:102840001800C4F20200016842F2000441F00401E1
:1028500001600168C4F2010401F0040101910199D1
:102860000168012241F48071016001684FF4204544
:1028700001F48071019101990168012641F008017C
:10288000016000684FF4204100F0080001900198B9
:102890002046FEF711F90220059002A92046CDE955
:1028A00002560496FEF714F806B070BD80B541F2EA
:1028B000B80045F20041C2F20000C4F2000148F243
:1028C000A06200234FF4804CC0F2010280E80E00A9
:1028D000C0E9033CC0E90533C0E90733FEF7F8F867
:1028E000002808BF80BDBDE88040FDF7D7BF0000CD
:1028F00080B541F20C1043F60001C2F20000C4F2B0
:10290000010100234FF00C0C4FF4E13280E80E007F
:10291000C0E90333C0E905C3C361FFF7C7FA002864
:1029200008BF80BDBDE88040FDF7B8BFFEE70000EE
:10293000FEE700007047000070470000FEF7F6BE9B
:1029400070470000FEE7000080B584B0944602881E
:102950000B4664200121CDE9011041F2B800C2F21A
:10296000000011461A461023CDF800C0FEF752FCB5
:1029700004B080BD002B04BF002070472DE9F04F4C
:1029800083B041F2B80B1C4690468A4607460025A4
:102990004FF06409C2F2000B05EB0A0000BA000C0C
:1029A0003988ADF80A0058460DF10A020223CDF825
:1029B0000090FEF741FBA8B9661B802E28BF802639
:1029C000398808EB050258463346CDF80090FEF7EB
:1029D00031F958B93544A542DED3002003B0BDE833
:1029E000F08F00BF012003B0BDE8F08F022003B0DC
:1029F000BDE8F08F10B542F20004C4F20104204695
:102A00004FF400510022FEF757F820464FF40041E2
:102A10000022FEF751F86420FDF746FF20464FF4F0
:102A200000510122FEF748F820464FF400410122F0
:102A3000FEF742F86420FDF737FF002010BD0000CC
:102A400059B14A1E012303EB92020D2902F0030C37
:102A500004D20022BCF1000F1ED17047B0B522F0A5
:102A60000304002250F802E081189EFA8EF383508E
:102A70004B68D1F808E0CD681BBA4B609EFA8EF324
:102A80008B602BBA043C02F11002CB60EAD1BDE8A6
:102A9000B040BCF1000FE0D08158BCF1010F09BA81
:102AA0008150DAD010444168BCF1020F09BA41608C
:102AB00008BF7047816809BA8160704780B50846D1
:102AC000FDF7F2FE002080BD80B584B00B46018882
:102AD0008DF80F2001200DF10F02CDE9002041F209
:102AE000B8004FF0640CC2F200001A461023CDF873
:102AF00008C0FEF737FD04B080BD00002DE9F04F9F
:102B0000A3B082460DF10A001C4691468B46851CF7
:102B10004FF00008642700BF444523D908EB0B00A1
:102B200000BAA4EB0806000C802E28BF8026ADF862
:102B30000A0009EB080128463246FDF7C5FCBAF841
:102B4000001041F2B800B31CC2F200000DF10A02FD
:102B50000097FEF771FA0028B044DDD0012023B0C1
:102B6000BDE8F08F002023B0BDE8F08F2DE9F04FD5
:102B700097B000F5A0650E46044600F5A26700F187
:102B8000100128464FF4F472FDF725FD102E40F099
:102B90005C8241F2080040F20F41C0F21070C0F2B6
:102BA0000401C7E9001028464FF4F471FFF748FF0D
:102BB000D4F84C05D4F83C651390D4F85405D4F8F7
:102BC00040251090D4F85805D4F860150E90D4F82C
:102BD0005C0532441044B4F94066B4F94226084416
:102BE000D4F844E5D4F848C51290B4F950061697C5
:102BF000D4F8647504F5AD6B91199BE80809B4F934
:102C0000522608440CEB0E0139441044B4F9442612
:102C1000B4F9467619441191B4F954163A44B4F90A
:102C2000567611443944D4F850A514911399B4F947
:102C300048760AEB01024244B4F94A165A440F920C
:102C4000B4F958263944B4F95A361144D4F8749575
:102C50001944139110990E9ACDF8349011440D9A9D
:102C6000D4F878651144B4F94C36B4F94E263144A1
:102C70000D91B4F95C161A44B4F95E361590D4F887
:102C80007C05D4F880E51144D4F89C2519441091B2
:102C9000D4F8A01570441044B4F96036B4F9622633
:102CA00008440B90B4F97006D118B4F97226D4F820
:102CB00084C5D4F888750844D4F8A41510440E903F
:102CC000D4F8A80507EB0C021144B4F96436B4F942
:102CD000662608440990B4F97406D118B4F976262A
:102CE0000844D4F88C85D4F8901510440C90D4F88E
:102CF000AC054144D4F8B0250844B4F96816B4F9D9
:102D00006A36104407905818B4F97816B4F97A2640
:102D1000084410440A90D4F89405D4F89815D4F8CF
:102D2000B4250844D4F8B8151044B4F96C26B4F9A5
:102D30006E360844B4F97C1605909818B4F97E26CE
:102D4000084410440890D4F8BC05D4F8C015D4F851
:102D5000DC250844D4F8E0151044B4F98026B4F911
:102D600082360844B4F9901603909818B4F9922664
:102D7000084410440690D4F8C405D4F8C815D4F813
:102D8000E4250844D4F8E8151044B4F98426B4F9CD
:102D9000863600EB010BB4F994169818B4F9962610
:102DA000084410440490D4F8CC05D4F8D015D4F8D5
:102DB000EC250844D4F8F0151044B4F98826B4F989
:102DC0008A3600EB0108B4F998169818B4F99A26D7
:102DD000084410440290D4F8D405D4F8D815D4F897
:102DE000F4250844D4F8F8151044B4F98C26B4F945
:102DF0008E3600EB0109B4F99C169818B4F99E269A
:102E0000084410440190D4F8FC05D4F80016D4F816
:102E10001C260844D4F820161044B4F9A026B4F9AE
:102E2000A23600EB010EB4F9B0169818B4F9B22628
:102E3000084410440090D4F80406D4F80816D4F8D6
:102E400024260844D4F828161044B4F9A426B4F96A
:102E5000A66600EB010AB4F9B416B018B4F9B626A8
:102E600008448618D4F80C06D4F81016D4F82C268A
:102E700008441044D4F83016B4F9A826B4F9AA7658
:102E80000144B818B4F9B826B4F9BA76104400EB86
:102E9000070CD4F81406D4F81826D4F83476104465
:102EA000D4F83826384410448008C4F878051598BA
:102EB000B4F9AC7600EB9070800815901498B4F9D2
:102EC000AE3600EB9070800814901398DA1900EB7E
:102ED0009070800813901098B4F9BC3600EB907095
:102EE00080081A44129B12900E989B0800EB907079
:102EF0008008C4F83C35119B11900C989B0800EB9E
:102F00009070800810900A98C4F840350F9B00EB31
:102F1000907080089B080F900898C4F844350D9B6A
:102F200000EB90709B088008C4F848350B9B0E900E
:102F300006989B0800EB9070C4F84C35099B8008FC
:102F40000D9004989B08C4F85035079B00EB9070D7
:102F500080089B080C900298C4F85435059B00EB40
:102F600090709B088008C4F85835039B0B9001981B
:102F70009B0800EB9070C4F85C354FEA9B034FEA66
:102F8000900B0098B4F9BE7600EB90703A44C4F808
:102F900060354FEA9803870806EB9670C4F86435ED
:102FA0004FEA99034FEA90080CEB9C70C4F868351F
:102FB0004FEA9E0389084FEA900902EB9270C4F829
:102FC0006C354FEA9A03C4F874154FEA900A04F27C
:102FD0007C50C021C4F8703504F5CC66FDF72DFB9C
:102FE0001598A4F85876A4F840061498169FA4F8EB
:102FF000420613986021A4F844061298A4F856B625
:10300000A4F846061198A4F85A86A4F84806109821
:10301000A4F85C96A4F84A060F98A4F85EA6A4F853
:103020004C060E98A4F84E060D98A4F850060C987D
:10303000A4F852060B98A4F854063046FDF7FDFAA2
:1030400028464FF4F471FFF7FBFC04F5A161284614
:103050004FF4F272FDF77DFA40F20310CEF2014018
:103060004FF07061C7E97410204642F618612A4695
:103070004FF4F473FFF742FD80460027002600BF9F
:1030800020464FF430512A460423FFF773FC0743D0
:1030900020460A21FFF712FDC72E47EA00070FD886
:1030A00094F802057E2813D894F801050136032808
:1030B000E6D147EA0800C0B217B0BDE8F08F00BF04
:1030C00047F0010747EA0800C0B217B0BDE8F08F2B
:1030D00047F0420747EA0800C0B217B0BDE8F08FDA
:1030E0002DE9F04F87B000F5A0650E46044600F5C7
:1030F000FC7128464FF44272FDF76DFA102E40F035
:103100002F8141F2080140F20F4204F5A160C0F2A4
:103110001071C1F20472C0E9002147F600024FF0BD
:103120000061C0F60002C0E9062128464FF4427152
:10313000FFF786FCD4F84405D4F834C50490D4F8DD
:103140004C05D4F838250390D4F85005D4F83CA5A4
:10315000D4F840650290D4F85405D4F85CE504F541
:10316000AC69624499E88003104406EB0A02724499
:103170003A44D4F848B50592049AD4F86C155A44E8
:103180004244D4F88C654A44D4F8583501910096ED
:103190000492DDE90262019FD4F870C518443244FC
:1031A000D4F874150690D4F878053A44D4F87CA580
:1031B000D4F88035D4F894656244D4F89895039295
:1031C000D4F89C250844D4F884E5D4F888B5D4F81C
:1031D000A01530445344D4F8A46548441A440290DE
:1031E000D4F8A80511440BEB0E023244D4F89085B4
:1031F00002EB000B009AD4F8ACC5D4F8B0354244C9
:103200000191D4F8B415D4F8B875624402EB030AFE
:10321000D4F8D4253944D4F8D835D4F8BC65D4F8DA
:10322000C005114401EB0309D4F8DC153044D4F88F
:10323000E035D4F8C4E5D4F8C8C5084400EB030869
:10324000D4F8E405D4F8CC25D4F8D0150CEB0E0353
:10325000D4F8E8651844D4F8EC358719D4F8F005AB
:103260001144D4F8F4251944D4F8F83501EB000ED4
:10327000D4F8140699180844D4F81816D4F8FC2584
:10328000D4F8006600EB010CD4F81C16B018D4F882
:10329000202608448318D4F80406D4F80816D4F875
:1032A00024660844D4F828168219D4F80C66D4F899
:1032B00010061144D4F82C2630441044069AD4F851
:1032C00030669208C4F83425059A30449208C4F850
:1032D0003825049A89089208C4F83C25039A800886
:1032E0009208C4F84025029AC4F86C159208C4F8F4
:1032F0004425019AC4F870059208C4F848254FEA9D
:103300009B02C4F84C254FEA9A02C4F850254FEAB4
:103310009902C4F854254FEA9802C4F85825BA080F
:10332000C4F85C254FEA9E02C4F860254FEA9C026F
:10333000C4F864259A0804F27450C021C4F86825C2
:10334000FDF77BF928464FF44271FFF779FB4FF602
:10335000A040C0F20100C4F834060020C4F878058B
:10336000204642F6F8412A464FF44273FFF7C6FB67
:1033700080460027002600BF20464FF430512A46E1
:103380000423FFF7F7FA074320460A21FFF796FBCD
:10339000C72E47EA00070FD894F802057E2813D8F5
:1033A00094F8010501360328E6D147EA0800C0B2C7
:1033B00007B0BDE8F08F00BF47F0010747EA0800FB
:1033C000C0B207B0BDE8F08F47F0420747EA0800F7
:1033D000C0B207B0BDE8F08F2DE9F04F81B040F2E8
:1033E000B805C2F20005522028802846FFF702FBEC
:1033F00040F27004C2F200042846214601F068FA47
:103400002178607081B178B940F2B800C2F2000052
:1034100000F0F6FE6070F8B1601D3AA11D22FDF7C4
:1034200053F81C2209E000BF4AF2E841601DC0F6D3
:1034300001012C22FDF748F82B2241F20C10611DEE
:10344000C2F200004FF0FF33A270FEF7E1FD60789A
:1034500001B0BDE8F08F00BF40F2B808C2F200082A
:103460004046402101F068FA661D2EA137A2304681
:10347000FCF7ECFE41F20C1AC2F2000AA070C2B2D4
:10348000504631464FF0FF33FEF7C2FD404601F093
:10349000C9FA40F6683504F10309C2F200050FF2DB
:1034A000BC0B607004E000BF40460521FFF706FB3F
:1034B0004046494600F0BAF8E17860700029F3D040
:1034C0004046294600F046FA00202071C2B2A818F2
:1034D00090F8843405EB4200B0F9C4733046594685
:1034E0000097FCF7B3FEA070C2B2504631464FF0D1
:1034F000FF33FEF78DFD20790130C1B240292071E4
:10350000E4D3D1E7564C35334C35435820554C4421
:10351000204C6F6164696E67206661696C65640A3E
:1035200000000000564C35334C35435820554C4470
:103530002072656164792021202856657273696F55
:103540006E203A202573290A00000000564C3533BE
:103550004C3543585F322E302E3000005A6F6E6566
:10356000253032645F537461747573253033755F31
:1035700044697374616E6365253034643B0A0000EE
:1035800090B0FEF7E1F800240120CDE90B44CDE92D
:10359000094406900A904FF4E0104FF48031022560
:1035A0000F9006A8CDE90714CDE90D51FEF768FA92
:1035B00020B1EFF3108072B6FEE700BF0F20CDE917
:1035C00001054FF48060CDE9040401A802210394B1
:1035D000FEF750F920B1EFF3108072B6FEE700BF9E
:1035E000FFF726F9FFF762F9FFF782F94FF4FA6067
:1035F000FDF75AF940F2700144F24250C2F2000164
:10360000C4F6471041F8050F4E208880052001F8C8
:10361000030C41F20C10C2F2000005224FF0FF3300
:10362000FEF7F6FCFFF7D8FEFEE70000B0B50C464B
:1036300000F5A062002104230546FFF79BF995F8E9
:103640000015FF2910D0AA7891420DD095F80115E8
:10365000052909D195F8021501F00501052903D1C5
:1036600095F80315C90611D495F90315B1F1FF3F7B
:1036700004DD0021C0B22170B0BD00BF95F8021575
:1036800008430021C0B22170B0BD00BF01212170EC
:1036900095F80015C0B2A970B0BD00002DE9F04F3B
:1036A00083B0064640F20020C0F6000002904FF0C2
:1036B000706001900020B3F5B46F009006D94FF010
:1036C000FF095FFA89F003B0BDE8F08F03F10C0049
:1036D0001FFA80FA100A8DF8000018098DF8020010
:1036E00018019B4688468DF801208DF803006A4634
:1036F000304642F6F4710C23FFF700FA814606F5D6
:10370000A0650024002700BF30464FF430512A4600
:103710000423FFF72FF9044330460A21FFF7CEF9BF
:10372000C72F44EA000409D896F802057E2809D874
:1037300096F8010501370328E6D105E044F00104BD
:1037400002E000BF44F04204304642F604412A46FB
:10375000534644EA0904FFF70DF944EA00092846F4
:103760005146FFF76DF9BBF1000FAAD00FFA8BF0AD
:1037700001280146D8BF0121042801F0030C05DA15
:103780000021BCF1000F1ED19BE700BF40F2FC728C
:103790001140494206F2075208F101076FF0030396
:1037A000D6187078FC18E070B07804332071F07887
:1037B00060713079CE180436A071F1D1191DBCF1B9
:1037C000000F3FF47EAF4A191079BCF1010F08F8E1
:1037D00001003FF476AF507941444870BCF1020FCC
:1037E0001CBF907988705FFA89F003B0BDE8F08F54
:1037F0002DE9F04F85B0B3F5B46F05D9FF24E0B2E1
:1038000005B0BDE8F08F00BF03F1080A06464FEA95
:103810001A20039003F10C00049042F6F470C01AD1
:10382000029018090190180189460090084619462F
:103830009B4617464FEA1228FFF702F9BBF1000F2B
:1038400033D0ABF101001BF0030180B216D006F5B6
:10385000A06219F80030024413710129A0F101039C
:1038600004D11846BBF1040F0BD21EE019F8033047
:103870000229A0F10201D37064D10846BBF1040F04
:1038800013D3A9F1010106F2015200BF0B185D78B4
:103890001418E5700D5CA57013F8015C657013F8E1
:1038A000023C13540438431CF0D1019806F5A0657E
:1038B00086F8020500984FF0706186F803050BEB5F
:1038C0000500416040F205110181039980F80BA0C9
:1038D00081720298049B81B230462A4686F80085A0
:1038E00086F80175FFF70AF980460027002400BF1B
:1038F00030464FF430512A460423FFF73BF8074384
:1039000030460A21FFF7DAF8C72C47EA000709D842
:1039100096F802057E2809D896F801050134032897
:10392000E6D105E047F0010702E000BF47F042079B
:103930004846594647EA0804FFF782F8E0B205B066
:10394000BDE8F08F19F8011003389170BBF1040F36
:1039500097D2AAE72DE9F04F97B0436800F5A0642D
:103960008A46002122460646FFF704F8149096F88E
:103970000005B188B07020461694FFF761F87068B2
:103980001128C0F091800AF2C44015900AF28440D8
:1039900013900AF2444012900AF5717011900AF5E2
:1039A000517010900AF511700F900AF582700E9008
:1039B0000AF5A2700D900AF104004FF0100B4DF6BD
:1039C000C33945F2CF544DF643770C900CE000BF5D
:1039D000011D0F984246FCF777FD0BEB080071685C
:1039E00000F1040B8B455FD2169830F80B10584449
:1039F00001F00F02931E0D0941880B2B28BF0122F5
:103A0000494505FB02F811DCA14221DD45F2D05207
:103A1000914239D04DF6580291423DD04DF6843254
:103A20009142DAD1011D0E98D4E700BFB9421BDDE7
:103A30004DF6447291422BD04EF2440291422FD067
:103A40004EF284029142C8D1011D1398C2E700BF13
:103A500045F2B442914213D045F2D0429142BCD1DA
:103A6000011D0C98B6E700BF4DF6C4329142AFD0AD
:103A70004DF6C4629142B0D1011D1098AAE700BF73
:103A8000007B8AF80000A8E7011D0D98A2E700BF9F
:103A9000011D11989EE700BF011D15989AE700BF10
:103AA000011D129896E700BF0AF104078ECF6FF050
:103AB000020CC90ACAF80410D10ACAF80810D90AB7
:103AC000DAF81420CAF80C10F90ACAF81010D10A52
:103AD000DAF81820CAF81410D10ADAF81C20CAF84B
:103AE0001810D10ADAF82020CAF81C10D10ADAF826
:103AF0002420CAF82010D10ADAF82820CAF82410A5
:103B0000D10ADAF82C20CAF82810D10ADAF83020C5
:103B1000CAF82C10D10ADAF83420CAF83010D10AC9
:103B2000DAF83820CAF83410D10ADAF83C20CAF89A
:103B30003810D10ADAF84020CAF83C10D10ADAF875
:103B40004420CAF84010D10ADAF84820CAF84410D4
:103B5000D10ADAF84C20CAF84810D10ADAF8502015
:103B6000CAF84C10D10ADAF85420CAF85010D10A19
:103B7000DAF85820CAF85410D10ADAF85C20CAF8EA
:103B80005810D10ADAF86020CAF85C10D10ADAF8C5
:103B90006420CAF86010D10ADAF86820CAF8641004
:103BA000D10ADAF86C20CAF86810D10ADAF8702065
:103BB000CAF86C10D10ADAF87420CAF87010D10A69
:103BC000DAF87820CAF87410D10ADAF87C20CAF83A
:103BD0007810D10ADAF88020CAF87C10D10ADAF815
:103BE0008420CAF88010D10ADAF88820CAF8841034
:103BF000D10ADAF88C20CAF88810D10ADAF89020B5
:103C0000CAF88C10D10ADAF89420CAF89010D10AB8
:103C1000DAF89820CAF89410D10ADAF89C20CAF889
:103C20009810D10ADAF8A020CAF89C10D10ADAF864
:103C3000A420CAF8A010D10ADAF8A820CAF8A41063
:103C4000D10ADAF8AC20CAF8A810D10ADAF8B02004
:103C5000CAF8AC10D10ADAF8B420CAF8B010D10A08
:103C6000DAF8B820CAF8B410D10ADAF8BC20CAF8D9
:103C7000B810D10ADAF8C020CAF8BC10D10ADAF8B4
:103C8000C420CAF8C010D10ADAF8C820CAF8C41093
:103C9000D10ADAF8CC20CAF8C810D10ADAF8D02054
:103CA000CAF8CC10D10ADAF8D420CAF8D010D10A58
:103CB000DAF8D820CAF8D410D10ADAF8DC20CAF829
:103CC000D810D10ADAF8E020CAF8DC10D10ADAF804
:103CD000E420CAF8E010D10ADAF8E820CAF8E410C3
:103CE000D10ADAF8EC20CAF8E810D10ADAF8F020A4
:103CF000CAF8EC10D10ADAF8F420CAF8F010D10AA8
:103D0000DAF8F820CAF8F410D10ADAF8FC20CAF878
:103D1000F810D10ADAF80021CAF8FC10D10ACAF862
:103D20000011002140F2C232159600BF0AEB410497
:103D3000B4F9C433C3F341771F443FB2BF086345AE
:103D4000B8BF0027A4F8C4730AEB010393F84474C6
:103D50007F0883F84474B4F84473FD090AEB8107C3
:103D6000D7F84402A4F844530AEB0205B5F90460FD
:103D7000C00AC7F84402C6F34170304400B280085C
:103D80006645B8BF0020A88093F845040831400874
:103D900083F8450435F87C0CD7F84862C00925F84B
:103DA0007C0CF00AB4F9C863C7F84802C6F3417046
:103DB000304400B280086645B8BF0020A4F8C803AC
:103DC00093F846041032400883F84604B4F84803D8
:103DD000D7F84C62C009A4F84803F00AB5F90860A6
:103DE000C7F84C02C6F34170304400B28008664503
:103DF000B8BF0020288193F84704400883F847049F
:103E000035F8780CD7F85062C00925F8780CF00A1C
:103E1000B4F9CC63C7F85002C6F34170304400B225
:103E200080086645B8BF0020A4F8CC0393F8480486
:103E3000400883F84804B4F84C03D7F85462C0092A
:103E4000A4F84C03F00AB5F90C60C7F85402C6F3A5
:103E50004170304400B280086645B8BF0020A88198
:103E600093F84904400883F8490435F8740CD7F8EE
:103E70005862C00925F8740CF00AB4F9D063C7F889
:103E80005802C6F34170304400B280086645B8BF9E
:103E90000020A4F8D00393F84A04400883F84A04A9
:103EA000B4F85003D7F85C62C009A4F85003F00AD4
:103EB000B5F91060C7F85C02C6F34170304400B237
:103EC00080086645B8BF0020288293F84B0440293B
:103ED0004FEA500083F84B0435F8700CD7F8603285
:103EE0004FEAD01025F8700C4FEAD320C7F86002D3
:103EF0007FF41CAF0020FF210AEB000292F804318E
:103F00001030002B08BF82F8841492F80531002B82
:103F100008BF82F8851492F80631002B08BF82F89A
:103F2000861492F80731002B08BF82F8871492F8A4
:103F30000831002B08BF82F8881492F80931002B51
:103F400008BF82F8891492F80A31002B08BF82F862
:103F50008A1492F80B31002B08BF82F88B1492F868
:103F60000C31002B08BF82F88C1492F80D31002B15
:103F700008BF82F88D1492F80E31002B08BF82F82A
:103F80008E1492F80F31002B08BF82F88F1492F82C
:103F90001031002B08BF82F8901492F81131002BD9
:103FA00008BF82F8911492F81231002B08BF82F8F2
:103FB000921492F81331002B08BF82F89314402812
:103FC0009AD10AF59A678ECF48F20100C8F2000034
:103FD000A1FB0016A2FB00121292A3FB0012119289
:103FE000A7FB0012DAF8E0141092A1FB0012DAF835
:103FF000E4140F92A1FB0012DAF8E8140E92A1FB70
:104000000012DAF8EC140D92A1FB0012DAF8F014A9
:104010000C92A1FB0012DAF8F4140B92A1FB00122F
:10402000DAF8F8140A92A1FB0012DAF8FC140992EB
:10403000A1FB0012DAF800150892A1FB0012DAF8D1
:1040400004150792A1FB0012DAF808150692A1FBED
:104050000012DAF80C150592A1FB0012DAF810151F
:104060000492A1FB0012DAF814150392A1FB0012CE
:10407000DAF818150292A1FB0012DAF81C15019269
:10408000A1FB0012DAF820150092A1FB001BDAF860
:1040900024151396A1FB0019DAF82815A1FB0018C6
:1040A000DAF82C15A1FB0017DAF83015A1FB001582
:1040B000DAF83415ED0BA1FB0014DAF83815E40B2F
:1040C000A1FB001EDAF83C15CAF83055A1FB001C14
:1040D000DAF84015CAF83445A1FB0013DAF84415A4
:1040E000DB0BA1FB0012DAF84815D20BA1FB006133
:1040F000DAF84C65C90BA6FB0060139ECAF8481598
:10410000F60BCAF8D064129EC00BF60BCAF8D46442
:10411000119E1599F60BCAF8D864109ECAF840355E
:10412000F60BCAF8DC640F9ECAF84425F60BCAF8F1
:10413000E0640E9ECAF84C05F60BCAF8E4640D9EC6
:10414000169AF60BCAF8E8640C9EF60BCAF8EC64F3
:104150000B9EF60BCAF8F0640A9EF60BCAF8F464DC
:10416000099EF60BCAF8F864089EF60BCAF8FC64C0
:10417000079EF60BCAF80065069EF60BCAF80465A2
:10418000059EF60BCAF80865049EF60BCAF80C6586
:10419000039EF60BCAF81065029EF60BCAF814656A
:1041A000019EF60BCAF81865009EF60BCAF81C654E
:1041B0004FEADB36CAF820654FEAD936CAF82465DB
:1041C0004FEAD836CAF82865FE0B4FEADE37CAF840
:1041D00038754FEADC37CAF82C65CAF83C75486870
:1041E000B1F80815104430F8040C49BA00BAB1EB24
:1041F000104F149818BF40F0020017B0BDE8F08FC0
:104200002DE9F04F8BB004464FF0011009900120CA
:10421000089045F2A81044F6D951C0F60000C0F647
:104220000001C4E902100026204647F6FF71002273
:1042300084F8AC6AFEF748FC0546204609210422B2
:10424000FEF742FC054320460F214022FEF73CFCCE
:10425000054320460A210322FEF736FC05430DF1F3
:104260002902204647F6FF71FEF76EFB0543204604
:104270000C210122FEF728FC0543204640F20111E3
:104280000022FEF721FC054320464FF481710022F5
:10429000FEF71AFC054320464FF485710122FEF714
:1042A00013FC0543204644F202010122FEF70CFCF8
:1042B0000543204644F202010022FEF705FC0543B7
:1042C00020464FF485710322FEF7FEFB054320468E
:1042D00040F203110122FEF7F7FB054320460C21B3
:1042E0000022FEF7F1FB054320460F214322FEF793
:1042F000EBFB054320460121FEF7E0FB054320468A
:104300000F214022FEF7E0FB054320460A2101224F
:10431000FEF7DAFB054320466421FEF7CFFB054399
:10432000204647F6FF710022FEF7CEFB45EA000863
:1043300004F5A065002700BF204606212A46012378
:10434000FEF718FB064320460A21FEF7B7FBC82FED
:1043500046EA00060AD2287801370128ECD158EA4B
:10436000060008D0C0B20BB0BDE8F08F46F00106E1
:1043700058EA0600F6D120460E210122FEF7A4FBE2
:104380000646204647F6FF710222FEF79DFB0643D4
:10439000204603210D22FEF797FB0643204647F6F1
:1043A000FF710122FEF790FB46EA00080027002675
:1043B000204621212A460123FEF7DCFA0743204646
:1043C0000A21FEF77BFBC82E47EA000704D22878B3
:1043D0000136C006ECD501E047F00107204647F65C
:1043E000FF71002248EA07060027FEF76DFB0DF17A
:1043F00029080643204647F6FF714246FEF7A4FA15
:10440000064320460C210122FEF75EFB06432046B0
:1044100047F6FF710022FEF757FB0643204640F2A5
:1044200001110022FEF750FB064320464FF4817134
:104430000022FEF749FB064320464FF48571012216
:10444000FEF742FB0643204644F202010122FEF73A
:104450003BFB0643204644F202010022FEF734FBF8
:10446000064320464FF485710322FEF72DFB0643D9
:10447000204640F203110122FEF726FB06432046A8
:1044800044F20F010022FEF71FFB0643204640F2D4
:104490001A214322FEF718FB0643204640F21A2158
:1044A0000322FEF711FB0643204640F21A210122A7
:1044B000FEF70AFB0643204640F21A210022FEF7CF
:1044C00003FB0643204640F219210022FEF7FCFAC6
:1044D0000643204640F21B210022FEF7F5FA064370
:1044E000204647F6FF710022FEF7EEFA064320460B
:1044F00047F6FF714246FEF727FA064320460C2195
:104500000022FEF7E1FA0643204647F6FF7101223A
:10451000FEF7DAFA0643204620210722FEF7D4FAF6
:104520000643204620210622FEF7CEFA0643204607
:1045300047F6FF710922FEF7C7FA45F2B048C0F608
:10454000000806432046002142464FF40043FEF790
:10455000D5FA0643204647F6FF710A22FEF7B4FA61
:10456000064308F50042204600214FF40043FEF7C1
:10457000C5FA0643204647F6FF710B22FEF7A4FA60
:10458000064308F58032204600214FF4A043FEF791
:10459000B5FA0643204647F6FF710122FEF794FA6A
:1045A0000643204647F6FF710222FEF78DFA0643C6
:1045B000204603210D22FEF787FA0643204647F6E0
:1045C000FF710122FEF780FA46EA0008002600BFCC
:1045D000204621212A460123FEF7CCF90743204635
:1045E0000A21FEF76BFAC82E47EA000708D228789E
:1045F0000136C006ECD558EA07007FF4B3AE05E0FB
:1046000047F0010758EA07007FF4ACAE204647F6B2
:10461000FF7100220027FEF757FA0DF12908064620
:10462000204647F6FF714246FEF78EF906432046C4
:104630000C210122FEF748FA0643204647F6FF7197
:104640000022FEF741FA064320464FF48A71002209
:10465000FEF73AFA0643204640F215110022FEF713
:1046600033FA064320464FF48B714222FEF72CFAB0
:104670000643204640F217110022FEF725FA0643B2
:1046800020460B210022FEF71FFA0643204647F67C
:10469000FF714246FEF758F9064320460C210022DE
:1046A000FEF712FA064320460B210122FEF70CFA10
:1046B00046EA00080DF12B09002600BF204606211E
:1046C0004A46FEF741F99DF92B100743B1F1FF3F30
:1046D00012DD20460121FEF7F1F99DF82B00C007FD
:1046E00004D1B6F5F97F06F10106E7D9F8B250EA30
:1046F00008007FF437AE0EE00DF12A0220460721B4
:10470000FEF722F9F9B29DF82A200843104350EA37
:1047100008007FF427AE204647F6FF710222FEF71D
:10472000D3F94AF2B0420790C0F60102204642F6A1
:10473000D8712823FEF7E2F94FF000090026069011
:1047400020464FF430512A460423FEF713F940EA7D
:10475000090720460A21FEF7B1F9C72E47EA0009EA
:1047600008D894F802057E2808D82878013602284F
:10477000E6D105E049F0010902E000BF49F0420935
:10478000204642F604412A464FF4F673FEF7F2F84B
:10479000059004F1100029464FF4F472FBF71BFF5B
:1047A00020461021FEF7E2F945F2A811049004F525
:1047B000FC70C0F600014FF44272FBF70CFF20467C
:1047C0001021FEF78DFCA2680390204642F634418A
:1047D0004FF47373FEF792F94FF000080026029031
:1047E00020464FF430512A460423FEF7C3F840EA2E
:1047F000080720460A21FEF761F9C72E47EA00089C
:104800000AD894F802057E280AD894F801050136E2
:104810000328E5D106E000BF48F0010802E000BF30
:1048200048F0420809A920464DF680320423FEF7DD
:10483000DFFF019008A920464DF664120423FEF71D
:10484000D7FF074601208DF82900204629464EF261
:1048500008122823FEF722FF9DF82910824684F8CB
:104860002615204629464EF208122823FEF7C0FFDF
:104870008346204629464EF208122823FEF70EFFF3
:104880009DF82910064684F82515204629464EF243
:1048900008122823FEF7ACFFDDE906211143059A33
:1048A00041EA09011143049A1143039A1143029A00
:1048B0001143019A41EA08011143394341EA0A01CF
:1048C00041EA0B0131430843C0B20BB0BDE8F08FA1
:1048D0002DE9F04182B0884647F6FF710022064676
:1048E000FEF7F2F805460DF1070230460021FEF70B
:1048F0002BF807460DF1060230460121FEF724F899
:104900000446304647F6FF710222FEF7DDF89DF8B7
:1049100007109DF8062081F0F00182F00202114399
:10492000B1FA81F147EA050249092243104388F8A8
:10493000001002B0BDE8F0812DE9F0410C4640299D
:10494000054629D0102C5FD105F5A06628463146D2
:104950004AF638521023FEF7A1FE0746402085F89C
:10496000040585F80605042085F809052846314622
:104970004AF638521023FEF73BFF40EA0708284664
:10498000314645F2504208230827FEF787FE48EAE1
:10499000000840F2044026E005F5A06628463146AE
:1049A0004AF6385210234FF01008FEF777FE0746FC
:1049B000012085F80905284631464AF63852102369
:1049C00085F8048585F80685FEF712FF074328461B
:1049D000314645F250420823FEF760FE47EA0008E0
:1049E00040F608000427A5F800052846314645F2A0
:1049F0005042082385F8047585F80575FEF7F8FE22
:104A000048EA000601E000BF7F2628462146FEF75F
:104A1000ADF8064328462146FEF762FB3043BDE869
:104A2000F08100002DE9F04F99B004464FF440703A
:104A300004F5A06816902046414645F250420823EE
:104A4000FEF72CFE94F8001594F80125C84B02FBE4
:104A500001FC07221292C6A20590FF200693D2E91C
:104A6000013702F1140AA0704FF04040D2E903650B
:104A70009AE802061590106ACDE9073702F124037F
:104A8000CDE909650B910ECB0EAD0FC5069B5FFA04
:104A90008CF14FF0000E40F6FF704FEA0112CDE9A5
:104AA00013EECDE90C9A12906BB103F00F00471E84
:104AB0000B2F8FBFC3F30B1040EA0203ADF8183081
:104AC000484300F1040E079B83B103F00F07781EE3
:104AD0000C282FBFC3F30B1347EA0200ADF81C00EC
:104AE00007FB01F30EEB030000F1040E089B83B1FA
:104AF00003F00F07781E0C282FBFC3F30B1347EAF0
:104B00000200ADF8200007FB01F30EEB030000F1FB
:104B1000040E099B83B103F00F07781E0C282FBFEA
:104B2000C3F30B1347EA0200ADF8240007FB01F3BF
:104B30000EEB030000F1040E0A9B83B103F00F0794
:104B4000781E0C282FBFC3F30B1347EA0200ADF801
:104B5000280007FB01F30EEB030000F1040E0B9B92
:104B600083B103F00F07781E0C282FBFC3F30B137C
:104B700047EA0200ADF82C0007FB01F30EEB03003F
:104B800000F1040E0C9B83B103F00F07781E0C2874
:104B90002FBFC3F30B1347EA0200ADF8300007FB49
:104BA00001F30EEB030000F1040E0D9B83B103F043
:104BB0000F07781E0C282FBFC3F30B1347EA020020
:104BC000ADF8340007FB01F30EEB030000F1040E17
:104BD0000E9B83B103F00F07781E0C282FBFC3F381
:104BE0000B1347EA0200ADF8380007FB01F30EEBA8
:104BF000030000F1040E0F9B83B103F00F07781E32
:104C00000C282FBFC3F30B1347EA0200ADF83C009A
:104C100007FB01F30EEB030000F1040E109B83B1C0
:104C200003F00F07781E0C282FBFC3F30B1347EABE
:104C30000200ADF8400007FB01F30EEB030000F1AA
:104C4000040E119B7BB103F00F07781E0C282FBFB9
:104C5000C3F30B1147EA0200ADF8440079430EEBB1
:104C6000010000F1040E0EF11800606006A9204654
:104C70004DF680123023FEF7BBFD616804900D20D5
:104C80001791189017A920464DF668120823FEF7D1
:104C9000AFFD039012A920464DF670121023FEF7C7
:104CA000A7FD0290204647F6FF7100224FF0000A50
:104CB000FDF70AFF0190204609210522FDF704FFB8
:104CC0000746204647F6FF710222FDF7FDFE054626
:104CD00016AA204642F6FC710423FDF70FFF814619
:104CE0004FF0000B20464FF4305142460423FDF7AD
:104CF00041FE40EA0A0620460A21FDF7DFFEBBF12D
:104D0000C70F46EA000A0BD894F802057E280BD894
:104D100094F801050BF1010B0328E3D106E000BF75
:104D20004AF0010A02E000BF4AF0420ADDE904103D
:104D300045F24042084303990C2308430299084373
:104D4000019908433843284340EA090040EA0A052C
:104D500020464146FEF7A2FCB4F80825636845EA00
:104D60000001FF20934208BFC8B219B0BDE8F08F20
:104D70000D000000C000B4544000C0540401D054E1
:104D80000404D055010484DB0404C4DB0204C4DE43
:104D9000020444DF010444E0010484E0C00858D860
:104DA00030380A2801D201207047002070470400E3
:104DB00000080000000000000002000100001000D8
:104DC00000000000000000010203040607080900BB
:104DD000000000010203040102545000800004049A
:104DE0000400000808AD3000800201030300000346
:104DF00000AD38010001E001400040004001000426
:104E0000000000000154580040041A0100545C01E5
:104E1000400000271000000FA00FA003E802801F31
:104E200040000005005470008003200320000000B3
:104E3000085478010001130029003300000200002B
:104E40000104010802548801400000000000000035
:104E500000000000000000000000000C00AD480150
:104E60000001F40000030600100807080700000016
:104E700008AD6001000000008000000000201F015C
:104E8000F400001D0AAD70008008001F4000000003
:104E900001AD78008000A0032000010190AD8000EA
:104EA0004000002800AD8400800000320003200094
:104EB00000AD8C00800258FF380000000CAD94015A
:104EC0000000019000FFFFFC000000040000000152
:104ED00001ADA400C00480061A0040058000000156
:104EE00006ADB000C00480061A190005800000015C
:104EF00090ADBC0440000000000000000000120063
:104F0000250000000600000005000000050000006C
:104F100006000000040000000F0000005A0000001E
:104F200000000000090B0C0B0B030311050101012C
:104F30000100000000000D0000AE000104000000B0
:104F400004000000080000000A0000000C0000003F
:104F50000D0000000E000000080000000800000026
:104F600010000000100000002000000020000000E1
:104F7000060000050A02000C0800000000AE400018
:104F800040000001FFAE44004000100401AE4800A4
:104F90004000001000AE4C004000000001AE500187
:104FA00040000000140400280003206C00000000F2
:104FB0000000002580AE64004000000002AED80171
:104FC0000000C805DC00000CCD0104000000002634
:104FD00001B5500282000000000000000000000047
:104FE00000000000000000000000000000000000C1
:104FF00000000000000000000000000000000000B1
:1050000000000000000000000000000000000000A0
:105010000000000000000000000000000000000090
:105020000000000000B5A0028200000000000000A7
:105030000000000000000000000000000000000070
:105040000000000000000000000000000000000060
:105050000000000000000000000000000000000050
:105060000000000000000000000000000000000040
:10507000000000000000000000B5F0004000FF004C
:1050800000B39C0100349B0435021B087C80011294
:105090000100000800B6C000C00000600000002051
:1050A0000000000000AEA8004000000405AEAC0007
:1050B000800100010000020000AEB40040000000CA
:1050C00000AEB800810000000000000000AEC0008B
:1050D000810000000000000000AEC800810801014E
:1050E0000800000008AED000810108080800000098
:1050F00001B5F400800000000000000000B5FC00D5
:10510000800000000000000000B604004000000025
:1051100000B608004400000000000000000000008D
:105120000000000000B6180044000000000000006D
:10513000000000000000000000B62800440000004D
:1051400000000000000000000000000000B6380071
:10515000440000000000000000000000000000000B
:1051600000B6480100000000000000000000000040
:105170000000000000B65801000000000000000020
:10518000000000000000000000B668010000000000
:10519000000000000000000000000000000000000F
:1051A0000F000103C80000009FD800C00320096061
:1051B0000B080817080808039FE4014000000000DE
:1051C000000000000000000001E0002000000020BE
:1051D0009FF80040171717179FFC0404000046A40F
:1051E000000037660000266000001CBC000017733A
:1051F000000011250000110700000E6300008B4C19
:10520000000060A200003DC0000026AA00001BC2F2
:105210000000180400001497000010ED0001281B86
:10522000000093F0000057610000302B000020AA1E
:1052300000001AB6000015C30000160E00017FBB67
:105240000000AD58000071AF000036D9000022FB0D
:1052500000001C96000018830000179600019000C3
:10526000000097D60000663B0000330A000020CD06
:1052700000001938000016A5000014BB0000AFCFD5
:105280000000657D00003D93000029D10000194E0B
:10529000000015BA000011C60000127F0000731D47
:1052A0000000422C00002E8200001E800000181C0E
:1052B0000000132D00000FC600000F8500004F04F2
:1052C000000033E900001F06000018400000132C06
:1052D0000000129700000E0100000DACA0FC0100C0
:1052E00000000000000000030000000000000000BB
:1052F000A10C01000000008000000003000000007D
:1053000000000000A11C00C0000070EB0C8001E058
:1053100000000026A1280902000000000000000093
:1053200000000000000100000036000301D9014325
:1053300002330217024B0241011702220027005DCF
:105340000005001100000001000000000000000046
:10535000000000000000000000000000000000004D
:10536000000000000000000000000000000000003D
:10537000000000000000000000000000000000002D
:10538000000000000000000000000000000000001D
:10539000000000000000000000000000000000000D
:1053A00000000000000000000000000000000000FD
:1053B00000000000000000000000000000000000ED
:1053C00000000000000000000000000000000000DD
:1053D00000000000000000000000000000000000CD
:1053E00000000000000000000000000000000000BD
:1053F00000000000000000000000000000000000AD
:10540000000000000000000000000000000000009C
:10541000000000000000000000000000000000008C
:10542000000000000000000000000000000000007C
:105430000000000000000000A24800400000000042
:10544000A24C00810000000000000000A254008176
:105450000000000000000000A25C008100000000CD
:1054600000000000A26400810000000000000000B5
:10547000A26C00840000000000000000000000009A
:10548000000000000000000000000000000000001C
:1054900000000000A28C008200000000000000005C
:1054A00000000000000000000000000F05010304E0
:1054B000E0000308E0000AC8E0000508E0640848CE
:1054C000E0000A88E0000A88E0000A88E0000A8814
:1054D000E0642E28E06431E8E0643548E0643B880D
:1054E000E0680468E0681768E0681B48E0681EC868
:1054F000E0682528E0682848E00009E8E00009C8DD
:10550000E00009A8E0000988E0000968E000094817
:10551000F8020006C1C381011E06A10B1A06810014
:105520009923E10097B397E3062C97730634E2C002
:10553000062CFC80C183E340E2C0061CFC980634C4
:10554000FC9C0634E340061C6938C183C143E80073
:10555000C1C38105E100000CFA045E65EC100CF09B
:10556000F41C5E60BC6E8861FF8407FC9A14D8044A
:10557000E4300460FC124C06E0D04C4AC1C38215F2
:10558000C1C3C1C3F804170C81938183E2C00C2C02
:105590001C8CD167E36BE404E56B8E0580640388A3
:1055A00004D8E76BE96B8064EB6B8AC580640608FE
:1055B0000A58ED6BF16B8064806407280878F36B00
:1055C000F56B8064F76B8AC5F96B8C05FB6B8C45BA
:1055D0000C0A8A458A65E4B4E4B80C0A0A78844562
:1055E0004006E064404AFC1280D5E0D0C1C3C1C38C
:1055F0001F0CC1C30FFCF004BCF4F784C153FD645D
:10560000E080000CE080000CE080000CE080000CEA
:10561000E080000CE080000CE080000CE080000CDA
:10562000E080000CE080000CE080000CE080000CCA
:10563000C1C3C143C1C3C153FAFC040C600006DA04
:105640000A20A10B183064000E24E400020A3780FF
:105650000C068000083420000A70B7805842A40469
:1056600081613298212BAA45060A8CBB0C100000E0
:105670000400E400181A6400A825E0000804A11D35
:105680000E1457801006D780044040000854C4040C
:105690004C72768010C4D2A0144076800E64A48030
:1056A0001224F680A16B76803C0154808C8B4000E4
:1056B00004800890DC004870849B28A3EC040EA0B2
:1056C0009EE5A07D964B217B0E8A86450E9AE500CD
:1056D0000006448016A0800008542C84C000289C3A
:1056E00020010E4A0054400000C4A8ACC000289D10
:1056F0000F9C14544002885B80CB99A8618400847D
:10570000E1840894128401CB324FE0FCE4041C7065
:105710004B0A01A158DA841094BB64006D84401ACE
:105720001C70C61F00C424080E54A084085421FC19
:105730004002A084A1EB399C3C005800BC004A40C8
:105740001D5A08C50EE0E0040DCBEC04E1FC00A4FA
:105750004B0A42B758FA840808C4641810A4E0FC45
:10576000400A608420BFED8C005490AB14846184A7
:10577000280F9C809194482213B04A624C50C3C7B2
:10578000805B1C0027F04ED89C004440960B211DE6
:10579000578004A4D78002B440000606C404042045
:1057A000528C42124010946B4C205C00801BDC0039
:1057B0000C0C8C0BDD93F2FC8C1B7FC5806B7FA5E2
:1057C000967B73E5FA3C040C81C1210B0000020AB0
:1057D000A085986B76800A140824A12B060A76808F
:1057E0000C048000988B7680061A1EC51834E000E1
:1057F000A11B7680A4800E403C014EC00860C00012
:1058000048500480A873DC00EC040A709AC5A05DBF
:1058100090CB215B0A8A86450A9AE50008064480F7
:10582000107080000A4A2C84C0002000289508349B
:105830000C24400008248F94182428A0C000289429
:1058400019984842883B982B61840814E0FC0C149A
:10585000618418042CCF893BE41046DA0430450AF1
:10586000E40412506D84401A125081C10C242408A3
:105870000834A1FC0A2420844842A084A19B3998C2
:105880003C004640BC004450135A186B88C5E004E5
:10589000EC040E9046FA033B450AE4040A24040093
:1058A0001034E184C26760FC60841CC4ED8C400A43
:1058B0006184083410C4B05F9CCB61FC5002306F2F
:1058C00044129188883B138C1C00422040808A2B14
:1058D00018E41C004FD89C80180BA7EC0C0C8C1BF8
:1058E000DD93F23C826B00CB75F5FF95C1C3905BF5
:1058F000FAFC040C808B210B0000020A046B829BD3
:1059000080E5867B060AA12B400A800080E5E59CA5
:10591000841B81210C0C840BDD93F2FC6800418810
:1059200000BB841B02AB900B41188E1B007BE80070
:1059300040D8920B8C1B680044B2813142A2F08C9B
:105940008623F29C42127D85C1C3F280E6864A0E10
:10595000E706580E6606460EE1C008546786440EF8
:10596000E0C000C402C460578A03E1C0F290421252
:105970005D938603F2884212E50004CAC17C0214DA
:10598000DC004010848004CACC800420C9080014C4
:10599000C17C02148000045AAD880614200106065A
:1059A0000004C0000214898840028908DD93998CA4
:1059B000E50004CAC0000206C0000006848004CAD4
:1059C000CC800420C9880014C00002068000045A5C
:1059D000AD880614200106060004C0000214898860
:1059E00040028988DD93998C8141610B06148A25D8
:1059F000E11B768076800404088581410630A4335B
:105A000004046C04A03DE184A13B86E5C88C02142B
:105A100064041830E408431A24081830A0840214DF
:105A20000AC021CB195AEC048245E004C247401D4C
:105A30001C8008449184400227FC4A985D93C31758
:105A40007FE5880B7D55804BC1C3883BFA00040C71
:105A50008111006BE8045048E1A0408600158004E5
:105A6000A11BE03CDC384208680457C8C1C38C0B5A
:105A7000FA04047C74A9464E490EC010C01074A9E3
:105A80008825893DCD14CD04050ACD244A00E08047
:105A90008425F00CE4000A3A60010098042080009C
:105AA000C116EC04F80C004A0420FE65E92DEC1048
:105AB000FE85C11EE00404CA8000454845C8C116E1
:105AC000FBF587FCE198414661914306801EC000CA
:105AD00081119B0181318121E8044A888C45A10B09
