:020000040800F2
:100000005007002015020008AD1C0008F91B00086D
:10001000A91C00083D070008D91D000800000000C9
:10002000000000000000000000000000B51C0008F7
:100030004107000800000000B11C0008B91C0008BE
:100040002F0200082F0200082F0200082F020008CC
:100050002F0200082F0200082F0200082F020008BC
:100060002F0200082F0200082F0200082F020008AC
:100070002F0200082F0200082F0200082F0200089C
:100080002F0200082F0200082F0200082F0200088C
:100090002F0200082F0200082F0200082F0200087C
:1000A0002F0200082F0200082F0200082F0200086C
:1000B0002F0200082F0200082F0200082F0200085C
:1000C0002F0200082F0200082F0200082F0200084C
:1000D0002F0200082F0200082F020008CD1D000883
:1000E0002F0200082F0200082F0200082F0200082C
:1000F0002F0200082F0200082F0200082F0200081C
:100100002F0200082F0200082F0200082F0200080B
:100110002F0200082F0200082F0200082F020008FB
:100120002F0200082F0200082F0200082F020008EB
:1001300000F002F800F05EF814A696E8000CB24455
:10014000B344DA4501D100F055F8BAE80F000FA624
:1001500096E83000A5EB040504EB0607AAEB0704BC
:10016000A7F101074FEA15154FEA3414A4F1010471
:10017000AC4201D300F03EF813F0010F18BFFB1A98
:1001800043F0010300F001F8DBE71847B41D00005D
:10019000D41D0000103A24BF78C878C1FAD852079D
:1001A00024BF30C830C144BF04680C6070470000F1
:1001B000704700000023002400250026103A28BFC5
:1001C00078C1FBD8520728BF30C148BF0B607047C9
:1001D000752900F09380002070471FB500F04AFA9F
:1001E00004000020002101F079FE401C60601FBD6A
:1001F00010B510BD00F019FA1146FFF7EEFF01F03F
:10020000EDFD00F049FA03B4FFF7F2FF03BC00F084
:100210008DFA00000948804709480047FEE7FEE7DD
:10022000FEE7FEE7FEE7FEE7FEE7FEE7FEE7FEE7A6
:1002300004480549054A064B70470000BD1C0008EC
:100240003101000850010020500700205003002019
:10025000500300200FB41CB50C0007AA009007D073
:100260004142A14202D32044401E01E04FF0FF3042
:10027000074B7B4469460190069800F028F900215D
:10028000002C01D0009A11701CBC5DF814FB00001A
:100290007F0200002DE9F0410E4604460020206256
:1002A0002046E168884730B3252805D0D4E90121EC
:1002B0009047206A401CF2E7E16820460027884703
:1002C000050018D0A5F14100192802D820354FF4B7
:1002D00000673246294620462760FFF779FF40B184
:1002E000012804D0F61D26F007060836D8E7361D8B
:1002F000D6E72846DAE7206ABDE8F0812DE9F0412B
:100300000646002410687529314616A510D0AFF3B3
:100310000080002802DA404213A507E031688A070E
:1003200001D512A502E0490704D511A5012401E079
:10033000AFF3008000210A2206F1240709E0B0FB98
:10034000F2FCB0FBF2F302FB1C003030785418468C
:10035000491C0028F3D123462A463046BDE8F04127
:1003600000F056B8000000002D0000002B00000037
:100370002000000070B5064600F046F80468054607
:1003800030460A22002100F0BDF82C6070BD30B567
:1003900005460B462A4613F8014B12F8010B08B12B
:1003A000A042F8D01CB1002802D06D1CF1E728460D
:1003B00030BD4FF0000200B51346944696462039F2
:1003C00022BFA0E80C50A0E80C50B1F12001BFF40E
:1003D000F7AF090728BFA0E80C5048BF0CC05DF874
:1003E00004EB890028BF40F8042B08BF704748BFC2
:1003F00020F8022B11F0804F18BF00F8012B704736
:100400007047704770470000004870471000002098
:100410002DE9F0470D4699469246044600F124081E
:100420000168880604D5E06921F01001216000E030
:100430000120A84201DD471B00E00027A1697A19CD
:1004400002EB0900081AA0612078C00602D42046F9
:10045000AFF30080002608E0D4E901211AF8060075
:100460009047206A401C761C20624E45F4DB2078C1
:10047000C0060AD52046AFF3008006E0D4E901218A
:1004800030209047206A401C2062381EA7F10107E7
:10049000F4DC07E0D4E9012118F805009047206A50
:1004A000401C2062281EA5F10105F3DC2046AFF3B5
:1004B00000802078000602D50220BDE8F0870120E8
:1004C000FBE7000001694A1C02610878704700B52B
:1004D0008FB0CDE901310021059105497944CDE97D
:1004E000031011466846FFF7D5FE0FB000BD0000AF
:1004F000E5FFFFFFD1E900239A4202D2531C0B60B3
:10050000107070472DE9F04791460F46804604462B
:10051000002614F8015B2DB100F030F80068405D52
:10052000C007F6D12B2D02D02D2D18D0641E4A46BF
:100530003946204600F02AF827B13968A14201D196
:10054000C7F800804FF0020471050BD54042002827
:1005500003DDFFF759FF0460A007BDE8F08746F40C
:100560008066E4E70028F8DAFFF74EFF04606FF0DA
:100570000040F2E7004870471000002010B500F07E
:1005800079F8001D10BD00BF551900002DE9F05F7E
:10059000824615468B4600270AF10104B9460078C9
:1005A000302801D09DB113E014F8010B0127782801
:1005B00003D0582801D045B10AE00DB1102D07D164
:1005C000002714F8010B102502E0082500E00A2599
:1005D0000026B0460EE005FB080005FB06F10127EA
:1005E0001FFA80F801EB1046B6F5803F00D3B946FC
:1005F00014F8010B294600F041F80028EBDABBF1B2
:10060000000F05D00FB1641E00E05446CBF8004047
:10061000B9F1000F06D0FFF7F7FE02210160C81EF6
:10062000BDE8F09F48EA0640FAE77546FFF7A2FFEB
:10063000AE4605006946534620F00700854618B0CF
:1006400020B5FFF7F5FDBDE820404FF000064FF064
:1006500000074FF000084FF0000BAC46ACE8C009B3
:10066000ACE8C009ACE8C009ACE8C00921F007015A
:100670008D46704700487047300000203A2800D26D
:10068000303820F02002412A01D3A2F137008842FD
:1006900001D34FF0FF30704710B50446AFF3008030
:1006A0002046BDE81040FFF7AEBD00004FF0013C12
:1006B00050F8042B51F8043B9A4221D1A2EB0C03D1
:1006C000934313EACC1317D150F8042B51F8043B91
:1006D0009A4215D1A2EB0C03934313EACC130BD12E
:1006E00050F8042B51F8043B9A4209D1A2EB0C03B9
:1006F000934313EACC13DBD04FF00000704700BFE8
:10070000D01A01BAB1FA81F101F0180122FA01F010
:10071000CB40DBB2C0B2C01AC1F120012CFA01F308
:10072000D11A914311EAC311E6D17047014918204B
:10073000ABBEFEE72600020070470000FEE70000A7
:1007400070470000EFF3108072B600BFFEE70000B4
:10075000014690F82100022816D10868D1E90FC39C
:10076000026822F00E020260026822F001020260BA
:10077000012000FA03F2CCF8042081F821000020C7
:10078000002281F820207047042088630120002285
:1007900081F820207047000090F82110022927D10D
:1007A000026840F2040C1368C4F2020C23F00E033A
:1007B000136013680CF17C018A4223F0010111607F
:1007C0001AD940F20841C4F202018A4250D040F2E4
:1007D0001C41C4F202018A4242D040F23041C4F2CC
:1007E00002018A4248D14FF48073CCF800345CE0B7
:1007F00004218163012070474321C4F202018A422F
:100800000EDD6B21C4F202018A421BDC4421C4F2DA
:1008100002018A423ED05821C4F202018A4223E0FA
:100820000821C4F202018A4232D01C21C4F2020122
:100830008A4237D03021C4F202018A4214D14FF4E7
:10084000807230E06C21C4F202018A4226D08021FD
:10085000C4F202018A4207D14FF0807223E000BF48
:100860001023CCF8003420E04FF480321BE000BFAE
:100870000123CCF8003418E00CF588614FF4803384
:100880008A4208BF4FF48053CCF800340DE000BF1B
:10089000012208E04FF4805205E000BF4FF48012BF
:1008A00001E000BF1022CCF80020012180F82110C7
:1008B000416B0022002980F8202004BF00207047EF
:1008C00080B58847002080BD2DE9F04F82B00E68CA
:1008D000002E00F0E980A0F1804241F6004540F290
:1008E0000043A2F58432C4F201050624C4F20103D8
:1008F0004FEAB227A84208BF05244FF0000E4FF080
:1009000001080F254FF0000A4FF0000B052F38BFEC
:100910004FEAB224009408E00E680AF1010A36FAA0
:100920000AF20EF1040E00F0BF8008FA0AFC16EA83
:100930000C09F1D04E684FF6FF72C1F210029642D8
:1009400012DC122E56D8DFE806F0350B4D4955550E
:10095000555555555555555555555545510000BF9B
:10096000D1F80CB046E000BF4FF6FF72C1F2210291
:1009700096420FDC0022C1F2110296421AD00022E8
:10098000C1F21202964215D00022C1F22102964213
:1009900010D02FE00022C1F2220296420AD000229B
:1009A000C1F23102964205D00022C1F232029642D3
:1009B00020D100BF8A684AB1012A14BFC0F814C010
:1009C000C0F810C04FF0080B14E000BF4FF0040B4C
:1009D00010E000BFCA6802F1040B0BE04FF0000BFF
:1009E00008E000BFCA6802F1080B03E0CA6802F120
:1009F0000C0B00BF02467446B9F5807F24BF043259
:100A0000203C166805FA04F726EA07070BFA04F6F5
:100A100037431760CA79D2067FF57EAF41F21807D7
:100A2000C4F202073A684FF6084542F001023A6004
:100A30003A68CFF6FF7502F001020192019A2AF09E
:100A400003021A440F2457590EF00C06B440A74372
:100A5000009C04FA06F6374357514E6840F20C44A6
:100A6000F2029A6854BF22EA090242EA0902C4F279
:100A700001049A602268B70254BF22EA090242EADE
:100A8000090222605A68B70354BF22EA090242EA07
:100A900009025A600F251A68F70354BF22EA0902B7
:100AA00042EA09021A6037E702B0BDE8F08F0000A1
:100AB00040F24810C2F200000068704740F20000A7
:100AC00040F24811C2F20000C2F2000100780A6848
:100AD000104408607047000080B542F20000C4F284
:100AE0000200016841F010010160032000F08CF861
:100AF0000F2000F005F800F027F8002080BD00006E
:100B000070B540F20006C2F2000640F208013278E9
:100B1000C2F200014FF47A730968B3FBF2F20446A3
:100B2000B1FBF2F1084600F085FB0F2C4FF00105F8
:100B300008D838B94FF0FF3021460022002500F0D8
:100B400037F87460284670BD82B041F21800C4F2D4
:100B500002000168022241F001010160016801F018
:100B6000010101910199416841F080514160406863
:100B700000F08050009000980420C4F20100016849
:100B800062F31A61016002B070470000002848BF9C
:100B9000704700F01F01012202FA01F11C2202EA53
:100BA000D0004EF20012CEF20002815070470000D9
:100BB00010B54EF60C5CCEF2000CDCF80030C3F33E
:100BC000022E8EF00704042C28BF0424BEF1030378
:100BD0004FF0FF3E0EFA04F438BF0023A1439940C2
:100BE0000EFA03F39A43114300F00F0200F1604341
:100BF0000901043A03F564436244002848BF02F146
:100C00000C03197010BD00004EF60C51CEF200011D
:100C10000A684FF6FF031A4060F30A2242F0806030
:100C200040F0FD7008607047002804BF0120704745
:100C30002DE9F04381B042F20008C4F202080446F4
:100C4000D8F800000D4600F0070088420CD2D8F812
:100C5000000020F007002843C8F80000D8F8000082
:100C600000F00700A8426CD1206841F20409810716
:100C7000C4F2020917D5410705D5D9F8001041F48F
:100C8000E061C9F80010010705D5D9F8001041F45A
:100C90006051C9F80010D9F80010A26821F0F001E5
:100CA0001143C9F80010C00742D1D8F8000000F085
:100CB0000700A8420CD9D8F8000020F0070028430C
:100CC000C8F80000D8F8000000F00700A84238D1AA
:100CD0002068410707D5D9F80010E26821F4E061E7
:100CE0001143C9F80010000708D5D9F800002169A0
:100CF00020F4605040EAC100C9F80000D9F8002093
:100D000002F00C00082841F20020C0F27A004DD118
:100D100041F62273C2F38341C0F60003595CD2034B
:100D200038D440F60010C0F23D0048433EE000BF1A
:100D3000606859F8041C022808D0012826D18903CC
:100D400006D4012001B0BDE8F08300BF8901F8D5C9
:100D5000D9F8001021F003010843C9F80000FFF79B
:100D6000A7FE064641F28837D9F80000616800F016
:100D70000C00B0EB810F98D0FFF79AFE801BB842B1
:100D8000F2D9032001B0BDE8F08300BF8907D8D5B0
:100D9000DEE700BFD9F8002041F62073C2F34042DD
:100DA000C0F600039A5C4843B0FBF2F0D9F800109B
:100DB00041F60872C1F30311C0F60002515C40F223
:100DC000080220FA01F140F20400C2F200000068BB
:100DD000C2F200021160FFF793FE002001B0BDE8EF
:100DE000F083000040F2080041F20401C2F200006A
:100DF000C4F202010068096841F61872C1F30221C9
:100E0000C0F60002515CC8407047000040F2080084
:100E100041F20401C2F20000C4F202010068096854
:100E200041F61872C1F3C221C0F60002515CC840FD
:100E300070470000002804BF012070472DE9F041F1
:100E400082B00446007841F20006C007C4F20206F0
:100E50000CD0706800F00C00042840F081803068ED
:100E6000800303D56068002800F046812078800761
:100E70001BD5706810F00C0F09D0706800F00C00E2
:100E8000082840F087807068C00300F183803068D4
:100E9000800703D52069012840F02E813068616900
:100EA00020F0F80040EAC10030602078000713D439
:100EB000207840072CD4E569002D00F01881706877
:100EC00000F00C00082840F0A780012D40F00481BC
:100ED000012002B0BDE8F081A069002800F0848004
:100EE0000020C4F242200121C0F88014FFF7E0FD89
:100EF000054600BF706A800700F1B280FFF7D8FD99
:100F0000401B0228F6D9032002B0BDE8F08100BFE3
:100F1000F0695FEAC00808D4F06940F08050F061E1
:100F2000F06900F080500090009847F20007C4F28A
:100F300000073868C00549D4386840F480703860CC
:100F4000FFF7B6FD054600BF3868C0053ED4FFF781
:100F5000AFFD401B6428F7D9032002B0BDE8F08143
:100F6000706800F00C00082803D17068C0033FF5DA
:100F700076AF61683068002900F00C81B1F5A02FD0
:100F800000F00081B1F5803F40F01A8140F48030DC
:100F90001CE100BF2069002840F20000C4F242209A
:100FA00000F0888001210160FFF782FD054600BF47
:100FB000306880073FF572AFFFF77AFD401B0228CB
:100FC000F6D9032002B0BDE8F08100BFE168306AC5
:100FD000002900F09D80052900F09280012940F051
:100FE000AF8040F00100B1E00020C4F242200021B7
:100FF000C0F88014FFF75CFD054600BF706A8007EB
:101000007FF556AFFFF754FD401B0228F6D90320A9
:1010100002B0BDE8F08100BF0027C4F242270020E3
:101020003866FFF745FD022D05460DD13068800179
:1010300040F1DE80FFF73CFD401B02284FF003002B
:10104000F4D902B0BDE8F081306880014FD5FFF7D8
:101050002FFD401B02284FF00300F5D9F1E700BF38
:1010600040F20800C2F20000006844F6D351C1F219
:101070006201A0FB0101480A019000BF00BF019876
:10108000411E002801913FF413AF00BF0198411E9B
:10109000002801913FF40CAF00BF0198411E0028C9
:1010A00001913FF405AF00BF0198411E0028019156
:1010B000E4D1FDE600210160FFF7FAFC054600BF20
:1010C000306880077FF5F1AEFFF7F2FC401B022885
:1010D0004FF00300F4D9B4E77068216A00F480325D
:1010E0008A4209D1616A00F47010884204D100205C
:1010F00002B0BDE8F08100BF012002B0BDE8F08180
:1011000040F004003062306A40F001001EE000BF91
:1011100020F001003062306A20F004003062FFF7F6
:10112000C7FC054641F28837306A800720D5FFF7B3
:10113000BFFC401BB8424FF00300F5D981E700BF68
:1011400020F001003062306A20F004003062FFF7C6
:10115000AFFC054641F28837306A800708D4FFF7B4
:10116000A7FC401BB842F7D9032002B0BDE8F081CC
:10117000B8F1000F3FF59FAEF06920F08050F061AC
:1011800099E600BF40F480203060306840F4803041
:101190001CE000BF20F480303060306820F48020F4
:1011A0003060FFF785FC0546306880037FF55EAE52
:1011B000FFF77EFC401B64284FF00300F4D940E7A2
:1011C00020F480303060306820F480203060FFF7F9
:1011D0006FFC0546306880033FF548AEFFF768FCBA
:1011E000401B6428F6D9032002B0BDE8F08100BF9F
:1011F000206AB0F5803F05D17168A26821F4003102
:10120000114371607168626A21F4741111430843DB
:10121000706001203866FFF74BFC0446306880019F
:101220003FF565AFFFF744FC001B02284FF00300B9
:10123000F4D906E7411E0020B0EB116F1CBF01205E
:1012400070474EF21002CEF2000251604EF623516A
:10125000CEF20001F0230B700721906011607047FF
:101260007047000070470000B0B582B001680A689E
:10127000CC684B6902F02F05202D04F0200505D124
:1012800025B102B0BDE8B04000F020BD5FEA027CAD
:101290001EBF03F0010E04F4907313EB0E0341D153
:1012A000036BD50618D5012B16D114F0100313D0FB
:1012B000002201920A6801924A680192019A4969E2
:1012C00049064BD4818DC28DC38D002B18BF91422E
:1012D00040F0F48102B0B0BD13062DD514F08003A8
:1012E0002AD090F84120212AF4D18268B2F5805F9B
:1012F00003D10269002A00F06782026A531C03626C
:1013000012784A60C28C013A1304C284E2D1C868E0
:1013100020F08000C860C86840F04000C86002B09B
:10132000B0BD00BFD30718BF14F4807340F0D08065
:10133000530700F1D380D8E05206CBD514F0400219
:10134000C8D0CA6822F04002CA60202180F841104B
:1013500002B0BDE8B04000F04DBC00BFC16B0A68F0
:10136000526893B2002BB5D0858DAB42B2D2C28504
:101370008969202900F0A180016851E8031F0268F3
:1013800021F4807142E80313DBB1016851E8031FC7
:10139000026821F4807142E8031393B1016851E8B7
:1013A000031F026821F4807142E803134BB1016806
:1013B00051E8031F026821F4807142E80313002BF7
:1013C000DAD1016851E8051F026821F0010142E805
:1013D0000513C3B3016851E8051F026821F001013C
:1013E00042E805137BB3016851E8051F026821F04C
:1013F000010142E8051333B3016851E8051F026893
:1014000021F0010142E80513002BDAD11BE000BFF7
:10141000016851E8051F026821F0400142E8051308
:10142000DBB1016851E8051F026821F0400142E884
:10143000051393B1016851E8051F026821F04001CE
:1014400042E805134BB1016851E8051F026821F01D
:10145000400142E80513002BDAD1202180F8421028
:1014600000210163016851E8031F026821F01001A7
:1014700042E80313DBB1016851E8031F026821F061
:10148000100142E8031393B1016851E8031F026899
:1014900021F0100142E803134BB1016851E8031F2A
:1014A000026821F0100142E80313002BDAD1C16B6E
:1014B00004460846FFF74CF9204602214163818D1E
:1014C000C28D891A89B202B0BDE8B040FFF7C8BE2C
:1014D000436C43F001034364530706D5BEF1000F8C
:1014E00003D0436C43F002034364930706D5BEF177
:1014F000000F03D0436C43F004034364BCF1000FBE
:1015000006D55EEA050303D0436C43F00803436449
:10151000436C002B3FF4DEAE920605D525B10446A0
:1015200000F0D4FB216820464969426C01F040017B
:1015300002F00802891800F0B98000BF016851E884
:10154000031F026821F4907142E80313BBB30168E2
:1015500051E8031F026821F4907142E8031373B34A
:10156000016851E8031F026821F4907142E80313F7
:101570002BB3016851E8031F026821F4907142E81F
:101580000313002BDAD11AE0016851E8051F026845
:1015900021F0010142E80513DBB1016851E8051FA4
:1015A000026821F0010142E8051393B1016851E896
:1015B000051F026821F0010142E805134BB10168E3
:1015C00051E8051F026821F0010142E80513002BD4
:1015D000DAD1016B012924D1016851E8031F0268A7
:1015E00021F0100142E80313DBB1016851E8031F49
:1015F000026821F0100142E8031393B1016851E839
:10160000031F026821F0100142E803134BB1016887
:1016100051E8031F026821F0100142E80313002B78
:10162000DAD1202180F84210002101630168496964
:10163000490640F1C380016851E8051F026821F0A6
:10164000400142E80513DBB1016851E8051F02685B
:1016500021F0400142E8051393B1016851E8051FEC
:10166000026821F0400142E805134BB1016851E8DE
:10167000051F026821F0400142E80513002BDAD172
:10168000C16B002900F09A8041F6C142C0F6000209
:10169000044608464A63FFF77FF800283FF41AAE75
:1016A000E06B416B02B0BDE8B04008470446FFF76D
:1016B000D9FD0020606402B0B0BD00BF891A00BF30
:1016C000026852E8032F036822F4907243E803256E
:1016D000BDB3026852E8032F036822F4907243E816
:1016E000032575B3026852E8032F036822F4907251
:1016F00043E803252DB3026852E8032F036822F460
:10170000907243E80325002DDAD11AE0026852E80E
:10171000052F036822F0010243E80525DDB10268C8
:1017200052E8052F036822F0010243E8052595B130
:10173000026852E8052F036822F0010243E80525FC
:101740004DB1026852E8052F036822F0010243E818
:101750000525002DDAD1202280F8422000220263E4
:10176000026852E8032F036822F0100243E80325C1
:10177000DDB1026852E8032F036822F0100243E84B
:10178000032595B1026852E8032F036822F0100286
:1017900043E803254DB1026852E8032F036822F0A5
:1017A000100243E80325002DDAD1022289B24263F8
:1017B00002B0BDE8B040FFF753BD00BF02B0BDE8C6
:1017C000B040FFF74FBD00BF026A32F8023B6FF333
:1017D0005F234B60026295E5002804BF012070473B
:1017E00010B5044690F8410028B9002084F8400064
:1017F000204600F063F8242084F841002068D4E9F2
:101800000212C36823F40053C360036923F44053F6
:101810001A430261D4E904231143C268194341F217
:101820000C639A431143C1604169A26921F440717C
:10183000114343F60002C4F201029042416103D019
:10184000FFF7D0FA02E000BFFFF7E0FAD4E9002387
:10185000192148439900B0FBF1F048F21F5CC5F232
:10186000EB1CA0FB0C314FF69C734909C0F6FF73CB
:1018700001FB0300322303EB0010A0FB0C03F0205C
:1018800000EA531000EB0110C3F3431108449060C9
:101890001069202120F490401061506920F02A0046
:1018A0005061D06840F40050D0600020606484F83B
:1018B000411084F84210606310BD000070B586B01E
:1018C000006844F60001C4F2000100268842059633
:1018D000CDE90366029637D043F60001C4F2010158
:1018E00088426AD141F21800C4F20200016840F651
:1018F000000441F4804101600168C4F2010401F474
:10190000804101910199016802AD41F0040101603B
:101910000068294600F00400019001984FF400701F
:10192000029002200390032005902046FEF7CCFF92
:101930004FF4806002900020CDE903002046294644
:10194000FEF7C2FF06B070BD41F21800C4F20200FB
:10195000416802AD41F480214160416801F4802179
:1019600001910199016841F0080101600068294670
:1019700000F00800019001984FF48060029002206E
:1019800003900320059040F60000C4F2010000F52A
:1019900080642046FEF798FF4FF40060CDE9020610
:1019A000204629460496FEF78FFF272000210022BB
:1019B000FFF7FEF82720FFF7E9F806B070BD00003A
:1019C00090F84230202B07D100294FF0010318BFB7
:1019D000002A05D11846704702231846704700BFF9
:1019E00000230363816222218285C285436480F8DB
:1019F00042100169006819B1C16841F48071C16089
:101A0000416941F001014161C16841F02001C160BB
:101A100018467047006844F60001C4F2000188428D
:101A200018BF704740F27000C2F20000837801785E
:101A30000A2B05D03E2903D84A1C027003E000BFE0
:101A400001220023427000EB010C811C40F20010C7
:101A5000C2F2000001228CF80830FFF7B1BF00008D
:101A60002DE9F04381B0044690F84100202809D1C7
:101A700000294FF0010018BF002A07D101B0BDE8CE
:101A8000F08300BF022001B0BDE8F0830020606455
:101A900021201D460E4684F841001746FFF708F83E
:101AA000A784E784A1688146B1F5805F02D12069EF
:101AB00000285DD037460020E28C2168002A5DD0E6
:101AC0006A1C24D0002D4AD0804600BF086800065A
:101AD00008D4FEF7EDFFA0EB0900A8427AD82168F0
:101AE000C868F3E717B117F8010B04E038F8020BE8
:101AF00000276FF35F204860E08C0138E084E08CC1
:101B00000028E3D13AE000BF0A68120609D40A6847
:101B1000120606D40A6812065CBF0A685FEA02620F
:101B2000F2D51FB117F8012B05E000BF30F8022BEA
:101B300000276FF35F224A60E28C013AE284E28C74
:101B4000002AE4D11AE000BF30F8022B00276FF31F
:101B50005F224A60E28C013AE284E28C72B10A6848
:101B6000120635D5002FEFD017F8012BF1E700BF93
:101B700000273046E28C2168002AA1D1086840067F
:101B80001ED42DB3681C14D1086840062AD40868F6
:101B9000400627D40868400624D4086840064FF061
:101BA0000000F1D50DE000BF2068C1680068400664
:101BB00018D4FEF77DFFA0EB0900A842F4D909E094
:101BC0000020202184F8411001B0BDE8F08300BF5F
:101BD000FEF76EFF0320202184F8411001B0BDE81C
:101BE000F08300BF0020202184F8411001B0BDE83F
:101BF000F083000070470000FEE7000082B041F271
:101C00001800C4F20200016841F008010160016897
:101C100001F0080101910199016841F0040101609E
:101C2000006800F004000090009802B070470000C7
:101C300080B540F2B80043F60001C2F20000C4F2E1
:101C4000010100234FF00C0C4FF4E13280E80E004C
:101C5000C0E90333C0E905C3C361FFF7BDFD002838
:101C600008BF80BDBDE88040FEF76CBD80B540F286
:101C7000001044F60001C2F20000C4F2000100238B
:101C80004FF00C0C4FF4165280E80E00C0E90333FD
:101C9000C0E905C3C361FFF79FFD002808BF80BDF1
:101CA000BDE88040FEF74EBDFEE70000FEE7000005
:101CB0007047000070470000FEF700BF704700004B
:101CC000406A0021C185C184FFF7CCBA81B090F889
:101CD0004210222921D183680246B3F5805F09D1E1
:101CE00052F8281F52F8183C002B63D003685B6839
:101CF0000AE000BF52F8281F13B90369002BF5D082
:101D000003685B6803F07F030B7011680131116099
:101D1000C18D01390A04C18502D001B0704700BFEE
:101D20000168CA6822F02002CA60CA6822F4807280
:101D3000CA604A6922F001024A61202180F84210FB
:101D400000214163026B012A3CD10163016851E823
:101D5000031F026821F0100142E80313DBB10168A0
:101D600051E8031F026821F0100142E8031393B108
:101D7000016851E8031F026821F0100142E80313D3
:101D80004BB1016851E8031F026821F0100142E8DD
:101D90000313002BDAD101680A68D20606D50022A7
:101DA00000920A680092496800910099818D01B003
:101DB000FFF756BA026852686FF35F2221F8022BD0
:101DC0008162A5E701B0FFF725BE000040F20010D8
:101DD000C2F20000FFF748BAFEE7000096B0FEF737
:101DE0007BFE00240120CDE90B44CDE90944069097
:101DF0000A904FF4E0104FF4803102250F9006A8AE
:101E0000CDE90714CDE90D51FFF714F820B1EFF338
:101E1000108072B6FEE700BF0F20CDE901054FF438
:101E20008060CDE9040401A802210394FEF7FCFEC2
:101E300020B1EFF3108072B6FEE700BFFFF7DEFEC1
:101E4000FFF7F6FEFFF712FF40F27006C2F200063F
:101E500040F20010B11CC2F200000122FFF7B0FDF9
:101E6000707898B141F6367A41F6327840F2B80986
:101E7000012506F10804C0F6000A4FF0000BC0F679
:101E8000000806AFC2F200091AE000BFFEE700BF7B
:101E90000630FEF76FFA034670603846402142462E
:101EA000FEF7D8F982B2484639464FF0FF33FFF7C4
:101EB000D7FD757820464021FEF77BFA86F800B002
:101EC0000020002D4FF00005FAD0707020465146DA
:101ED000FEF75DFA0028DBD10025EBE710B50029FD
:101EE0000AD00878002807D005487844FEF7DEFBC2
:101EF000002801D0002010BD0248784410BD000029
:101F0000760000006E0000000000000000000000ED
:101F1000010203040607080900000000010203048F
:101F2000010202030405060708090A0B0C0D0E0F37
:101F3000101025750A004C696768743A00000000AB
:101F4000702000080000002010000000940100082C
:101F5000802000081000002040070000B4010008A5
:101F60001001000043000000F8FFFFFF0040404068
:101F7000404040404040414141414140404040405C
:101F80004040404040404040404040404005020208
:101F900002020202020202020202020202202020C7
:101FA0002020202020202002020202020202909023
:101FB0009090909010101010101010101010101021
:101FC0001010101010101010020202020202888875
:101FD0008888888808080808080808080808080881
:101FE0000808080808080808020202024000000069
:101FF00000000000000000000000000000000000E1
:1020000000000000000000000000000000000000D0
:1020100000000000000000000000000000000000C0
:1020200000000000000000000000000000000000B0
:1020300000000000000000000000000000000000A0
:102040000000000000000000000000000000000090
:102050000000000000000000000000000000000080
:102060000000000000000000000000000000000070
:10207000010000001000000000127A0000000000C3
:0400000508000131BD
:00000001FF
